:020000040800F2
:1000000000000320155D0008A9200008AD200008AD
:10001000C1200008C3200008C5200008000000001F
:10002000000000000000000000000000F1170008C0
:10003000C72000080000000091180008C92000082F
:10004000655D0008655D0008655D0008655D000888
:10005000655D0008655D0008655D0008655D000878
:1000600069210008655D0008655D0008655D0008A0
:10007000D1200008655D0008E1200008655D0008EA
:10008000655D0008655D0008655D0008F1200008F9
:1000900001210008655D0008655D0008655D0008D8
:1000A000655D0008655D0008655D0008655D000828
:1000B00011210008655D0008655D0008655D0008A8
:1000C000655D0008655D0008655D0008655D000808
:1000D000655D000821210008655D000839210008E0
:1000E0005D210008655D0008655D0008655D00082C
:1000F000655D0008655D0008655D0008655D0008D8
:10010000655D0008655D00084D210008655D00081B
:10011000655D0008655D0008655D0008655D0008B7
:10012000655D000875210008655D0008655D0008D3
:10013000655D0008655D0008655D000885210008B3
:1001400095210008655D0008655D0008A52100088F
:10015000B5210008C5210008655D0008D52100080B
:10016000655D0008655D0008655D0008655D000867
:10017000655D0008655D0008655D00080000000021
:10018000655D0008655D0008655D0008655D000847
:10019000655D0008655D0008655D0008655D000837
:1001A0000000000000000000655D000810B5054C6F
:1001B000237833B9044B13B10448AFF30080012313
:1001C000237010BDD405002000000000307A000824
:1001D00008B5034B1BB103490348AFF3008008BDCA
:1001E00000000000D8050020307A000808B54FF460
:1001F0007A7002F0B9FF4FF40061024803F00FFD7E
:10020000F5E700BF00100240014B1878704700BFAF
:10021000F005002070B58AB00D4C05AD26460FCE16
:100220000FC533682B60002105A800F08CFE094B38
:1002300018606D4614340FCC0FC523682B60002165
:10024000684600F080FE044B18600AB070BD00BF25
:10025000EC720008C4F10120E0F5012008B500238C
:100260001A4640F20341022000F076FA002008BD51
:10027000014B01221A7070475EFA012008B54FF455
:10028000FA7002F071FF4FF48041024803F0C7FC9E
:10029000F5E700BF0014024010B50446B0F5806FCA
:1002A00002D0042C08D010BD084800F01BFA00282A
:1002B000F7D000F0EBF9F4E7FFF7A6FF10B9FFF76E
:1002C000CDFFF0E7FFF7D4FFEDE700BF587300085C
:1002D00070B58CB00446EFF3108672B6051D284643
:1002E00000F0BEFCC8B1002384F8243086F31088E7
:1002F0000CB070BD08A9284600F094FC089B02933E
:100300009DF82430069300230493059301AB0DF16F
:10031000250202A9206802F03BFF284600F0A0FC5D
:100320000028E3D1206802F0AEFF0028E2D10023CC
:1003300084F82430F1E7000008B5074B984203D059
:10034000064B984204D008BD0548FFF7C1FFFAE705
:100350000448FFF7BDFFF6E770FB012048FB0120D2
:10036000F8FA0120BCFA012008B5074B984203D0E7
:10037000064B984204D008BD0548FFF7A9FFFAE7ED
:100380000448FFF7A5FFF6E770FB012048FB0120BA
:10039000F8FA0120BCFA012008B5074B984203D0B7
:1003A000064B984204D008BD0548FFF791FFFAE7D5
:1003B0000448FFF78DFFF6E770FB012048FB0120A2
:1003C000F8FA0120BCFA012010B50446084B984207
:1003D00006D0084B984207D0204603F042F910BDE2
:1003E0000548FFF775FFF7E70448FFF771FFF3E7EC
:1003F00070FB012048FB0120F8FA0120BCFA012023
:1004000010B58AB0044601AB03AA002102F058FFE0
:10041000134B9C4212D0134B9C421FD00AB010BD0C
:100420000134042CFADC04F10A030F4A52F8233099
:10043000002BF5D001A903A89847F1E70024F0E7C5
:100440000134042CEADC04F10A03084A52F8233090
:10045000002BF5D001A903A89847F1E70024F0E7A5
:1004600070FB012048FB0120F8FA0120BCFA0120B2
:1004700003681A6812F0100F2FD010B582B004462E
:10048000002201921A6801925B680193019B436B01
:100490001A68136823F001031360436B1B685B68E1
:1004A000202B0CD0636B1B6832225A60636B1A6876
:1004B000136843F001031360002002B010BD084B25
:1004C0001B6813B1122107489847074B1B68002B84
:1004D000E8D0122103489847E4E70020704700BFA6
:1004E000F8050020FC050020F405002038B505467D
:1004F000028AC0686B681B685C680B46B9B9A4B215
:100500002989091B89B2012B13D0022B14D0891A17
:100510008CB26B6913B1214610449847298A214453
:100520002A8991FBF2F302FB1311298238BD0021C5
:10053000E9E729894908E8E72989E8E738B5044661
:10054000838D93B1858B9D4200D91D462A46A169B2
:1005500004F1200000F027FB012384F83E302A46F6
:10056000A169206804F010FD38BD002380F83E30FA
:10057000FAE7000008B5084B984203D0074B9842B1
:1005800005D008BD02210648FFF7B0FFF9E70221B8
:100590000448FFF7ABFFF4E788FD012028FF0120A6
:1005A000300600207006002008B5074B984203D0A3
:1005B000064B984204D008BD0548FFF7BFFFFAE795
:1005C0000448FFF7BBFFF6E788FD012028FF012064
:1005D00030060020700600200A4B1B681A6812F0D3
:1005E000100F00D1704700B583B0002101911A6847
:1005F00001925B680193019B0348FFF777FF03B00B
:100600005DF804FB88FD0120300600200023052B47
:100610000DDC03EB4302074911F82220824201D08E
:100620000133F4E703EB430301EB83007047002041
:10063000704700BF000000202DE9F041074600B3DD
:10064000052920D8EFF3108872B60846FFF7DEFFC1
:100650000646446800E02468331DA3420BD0A4F191
:10066000240520223946284605F08CFC0028F2D1CA
:1006700088F3108802E088F3108800252846BDE83A
:10068000F0810546FAE70025F8E7000028B310B529
:1006900004464FF48061124803F0B4FA84F8420033
:1006A00028B90023A365012384F8403010BD012838
:1006B00001D00020FAE7E36AA365002384F8403004
:1006C00094F84130012B01D00020EFE7A36C0133F7
:1006D000A364002084F84100E8E76FF00100704750
:1006E0000014024008B50521FFF7A6FF08BD000071
:1006F00010B5002400E001341D2C09DC054B53F833
:100700002430002BF7D0044A52F824009847F2E72F
:10071000002010BD28070020B0060020002300E0C4
:100720000133312B13DC0B4A02EB0312B2F89A228D
:100730008242F5D1074A02EB031292F89822012A6D
:10074000EED11B0103F526730248184470470020C0
:10075000704700BFA00700202DE9F04784B0044691
:100760000D4617469A460846FFF7D8FF064620462C
:1007700000F00AF98046C6B13679FF2C17D0012E59
:100780001ED04FF00009002202920195CDF800A082
:100790003B464946204600F037F90446ACB9104BB9
:1007A000D3F804319BB1984711E00026E5E72A46CB
:1007B0005146384600F090F804464FF00009EDE746
:1007C000404600F013F88146DDE7012E03D02046B5
:1007D00004B0BDE8F0874946404600F019F8F6E756
:1007E000A007002008B500F09FFA08BD00231E2BCB
:1007F0000CDCC21892F863200AB10133F7E7184401
:10080000012280F863201344D8B27047002070475B
:100810004B1EDBB21E2B05D801390144002081F8A4
:10082000630070474FF0FF307047000070B5054619
:1008300016461C46AA2323700278A37862F3870326
:10084000A370244B1B78237183786371C378E370A2
:10085000BDF8103023810023A371E371C37813F036
:10086000200F1DD006F110036370C3F30122A3789B
:1008700023F003031343A370324604F10C0005F088
:1008800097FA0C21204600F009FBEB7813F0200FBB
:1008900019D006F11001204600F030FB002070BD99
:1008A00006F112036370C3F30122A37823F003035C
:1008B0001343A370BDF81430A381324604F10E0037
:1008C00005F076FADDE706F11201204600F016FB8E
:1008D000E4E700BFA0070020B1F5007F01D90120A7
:1008E00070472DE9F04784B080460E4617469DF8C4
:1008F0000F3003F0C0036FF387138DF80F30FF2321
:100900008DF80E300023ADF80C3001F14209484655
:10091000FFF768FF0446002832D000F1300A019743
:100920000025009553463246414603A8FFF77EFF57
:100930006574C4F808A006F11209A4F80C9001230C
:10094000E375E5612583E57384F82030FF23A37404
:10095000A5752574A7826562EFF31082094BDA60F2
:1009600072B61A685460226063601C601A7A0132A1
:100970001A72DB6883F31088284604B0BDE8F0875C
:100980000220FAE734FB01200B4B03445B78052B74
:100990000DD80949942202FB031292F8192642B19C
:1009A000942000FB03F000F5B76008447047002076
:1009B00070470020704700BFA007002030B400F14E
:1009C0004805EFF310840F4BC3F8A04872B6C06C13
:1009D000436801E018465B68A8420BD0447C94420F
:1009E000F8D1847C8C42F5D1064BD3F8A03883F340
:1009F000108805E0034BD3F8A03883F3108800205B
:100A000030BC7047A00700202DE9F04F87B003935A
:100A1000BDF844A0BDF848B000230593109BB3F582
:100A2000007F00F2AF800746884615469DF81730D4
:100A300062F3451361F304036FF387138DF81730E6
:100A40008DF816000023ADF81430FFF79DFF064621
:100A5000002800F0998015B9B8F1000F66D1012D7A
:100A60006CD0109B03F142094846FFF7BBFE0446D9
:100A7000002800F08B8065B9EFF31083F36572B640
:100A8000B6F858B00BF10103A6F85830F36D83F3B4
:100A9000108804F13003CDF804A0CDF800B09B46D7
:100AA000109A039905A8FFF7C1FE9DF81730C3F30C
:100AB00004036374C4F808B0A9F13009A4F80C90D9
:100AC0000023E361E373012284F82020A774A57555
:100AD0002374A4F814A063625046FFF71FFE002899
:100AE00030D04279E275C28822838268A262C368EC
:100AF000E362EFF31083F36572B615B9B8F1000F36
:100B000027D1002D31D106F14803B26C5460226028
:100B10006360B46496F85A30013386F85A30F36D46
:100B200083F31088002007B0BDE8F08F42463946B5
:100B3000FFF744FF002892D00520F4E7109B03F153
:100B4000400991E70123E37500232383A362E36255
:100B5000CFE7424639463046FFF730FF0028D0D075
:100B6000F36D83F310880520DDE706F15003326D45
:100B7000546022606360346596F85B30013386F818
:100B80005B30CCE70120CEE70620CCE70220CAE7A5
:100B900003460160501E084458609A600020D860E7
:100BA0001961596170472DE9F843EFF3108872B667
:100BB000002932D004460F46C56875B303694668FC
:100BC000B34201D9036803619542A8BF1546216964
:100BD000761A0136B54211DC2A46384605F0E8F8A7
:100BE00023692B442361A3682B44A360E3685B1B48
:100BF000E36088F310882846BDE8F883A5EB060972
:100C00003246384605F0D4F84A462168B81905F04E
:100C1000CFF822684A442261E5E788F310884FF054
:100C2000FF35E8E710B50446C368B3B1084662690A
:100C300063689A4201D9236863612269616905F09A
:100C4000B7F82269636913446361A3680133A36041
:100C5000E368013BE360002010BD4FF0FF30FBE78D
:100C6000C068B0FA80F0400970470000124A12F0E4
:100C7000070F1ED0D11D21F00701C1F570431344A9
:100C80000A460E480260002141601344083B23F0ED
:100C900007030B48036059601960991A516013608B
:100CA000084B1960084B1960084B4FF000421A605E
:100CB00070474FF47043E4E75410002058000120BF
:100CC000481000204C10002050100020441000203C
:100CD00010B4134B1A461B688342FBD35168541857
:100CE00084420AD041684418A3420BD0036090426A
:100CF00000D010605DF8044B7047406801445160BB
:100D00001046EFE7074C2468A34206D05B681944FD
:100D1000416013681B680360E9E70460E7E700BF10
:100D2000580001204810002070B505462F4B1B7855
:100D300013B92E4B01221A70EFF310822C4B1A605C
:100D400072B62C4B1B68A3B12B4B1B681D4244D1C0
:100D500035B1083515F0070F02D025F00705083525
:100D6000002D3CD0254B1B68AB423AD3244A146873
:100D700004E0FFF77BFFE7E722461C466368AB42CF
:100D800002D22368002BF7D11A4B1B68A3422AD04A
:100D9000166808362368136063685B1B102B16D82F
:100DA000626816490B689B1A0B60164909688B42EA
:100DB00001D214490B60104B1B681343636000237E
:100DC00023600B4B1B6883F31088304670BD60199D
:100DD00043606560FFF77CFFE2E70026F1E700264D
:100DE000EFE70026EDE70026EBE700BF5400012007
:100DF00044FB012048100020441000205010002027
:100E0000580001204C100020EFF31082124B1A60A2
:100E100072B6E0B1A0F1080150F8043C0F4A126824
:100E2000134214D010B550F8084C24B10A4B1B687B
:100E300083F3108810BD23EA020340F8043C0848FD
:100E40000268134403600846FFF742FFEEE7024BD7
:100E50001B6883F31088704744FB01204410002076
:100E600050100020034698B1481E99B110B413F8F1
:100E7000011B5140C9B2084C34F8111081EA12220A
:100E8000014601380029F2D110465DF8044B704745
:100E90004FF6FF72104670476077000880B170B55A
:100EA0000C46054602290AD98E1E43F6A322314676
:100EB000FFF7D8FFA855013CC0F30720285570BDA7
:100EC00070470000034698B1481E99B110B413F85A
:100ED000011B5140C9B2084C54F8211081EA12227A
:100EE000014601380029F2D110465DF8044B7047E5
:100EF0004FF6FF721046704760730008B8B170B5C6
:100F00000C460546042911D90E1F43F6A32231468B
:100F1000FFF7D8FFA855E31EC0F30722EA54A31E2B
:100F2000C0F30742EA54013C000E285570BD7047DB
:100F3000842801D0033070470020704708B500F0C6
:100F4000DFF9002008BDF0B585B00C46456806689D
:100F50000769B0F90800FFF7EBFF03AB01930090BE
:100F60002346BAB23146284600F098F9012802D14A
:100F7000039805B0F0BD0020FBE708B500B90120DB
:100F800000F00CFB002008BD08B500F0D3FB0128E1
:100F900000D108BD00F0AEFCFBE700F108034360A0
:100FA0004FF0FF328260C36003610023036070472B
:100FB00000230361704743684B609A688A60516000
:100FC00099600861036801330360704730B40D68AD
:100FD000B5F1FF3F11D000F108031C465B681A68A9
:100FE000AA42FAD963684B6099608C6061600861BD
:100FF00003680133036030BC70470469F2E703699A
:10100000416882688A60416851605A68824205D0AE
:1010100000220261186801381860704782685A60BF
:10102000F6E70000084B1B681B6823B9074B4FF01D
:10103000FF321A607047044B1B68DB68DB685A6834
:10104000024B1A60704700BF640001203C01012080
:1010500010B50446006B00F0CFFD204600F0CCFD3B
:1010600010BD2DE9F04780460D4617469946089E6B
:10107000DDF824A00A9C9200A521206B04F032FF29
:10108000236B07F18042013A03EB820727F0070741
:1010900000220F2A07D8A95CA31883F83410AB5C90
:1010A0000BB10132F5E7002384F84330062E00D956
:1010B0000626E66266640025A564201DFFF778FF1A
:1010C00004F11800FFF774FF2461C6F10706A6615A
:1010D0006462E56484F850504A464146384600F060
:1010E0006DFB2060BAF1000F01D0CAF80040BDE8E6
:1010F000F087000038B5002407E004EB8402930079
:101100000E481844FFF749FF0134062CF5D90C4D61
:101110002846FFF742FF0B4C2046FFF73EFF0A48E8
:10112000FFF73BFF0948FFF738FF0948FFF735FF96
:10113000084B1D60084B1C6038BD00BF6C000120CF
:10114000100101202401012044010120700101202F
:101150005C010120640001206800012010B50446F4
:1011600000F058FB204A1368013313601F4B1B68C3
:101170005BB11F4B1B686BB91C4B1B68DA6AE36AD7
:101180009A4207D8194B1C6004E0184B1C60136886
:10119000012B26D0174A136801331360E06A01233C
:1011A0008340154A11680B43136000EB8000211D3A
:1011B000124B03EB8000FFF7FEFE00F04DFB0C4BE3
:1011C0001B686BB1094B1B68DA6AE36A9A4207D263
:1011D0000B4B4FF080521A60BFF34F8FBFF36F8FEE
:1011E00010BDFFF787FFD5E7F80001206000012060
:1011F00058010120080101200C0101206C00012090
:1012000004ED00E070B504460D461D4B1E681D4BF5
:1012100018680430FFF7F3FE50B91A4B1B68DA6AFE
:10122000012303FA02F218490B6823EA02030B6058
:10123000B4F1FF3F0DD03444124B1B685C60A642F2
:1012400010D9124B18680F4B19680431FFF7BEFE16
:1012500070BD002DEFD00B4B196804310C48FFF71F
:10126000AAFEF5E70B4B1868064B19680431FFF727
:10127000ADFE094B1B68A342EAD9074B1C60E7E7A8
:1012800084010120600001200C0101206800012080
:101290005C010120640001203C0101202DE9F043A4
:1012A00085B00746884614461E46900000F022FC92
:1012B000F0B18146542000F01DFC0546A0B1C0F8F5
:1012C0003090D5B10023039302950D9B01930C9BA5
:1012D00000933346224641463846FFF7C2FE284671
:1012E000FFF73CFF012005E0484600F085FCE8E7F9
:1012F0004FF0FF3005B0BDE8F0834FF0FF30F9E765
:1013000000B583B0174B0193002300938022164948
:101310001648FFF7C3FF012805D0B0F1FF3F17D0F3
:1013200003B05DF804FB4FF0500383F31188BFF363
:101330006F8FBFF34F8F0E4B4FF0FF321A600D4B84
:1013400001221A600C4B00221A6000F0FFFAE7E756
:101350004FF0500383F31188BFF36F8FBFF34F8FAC
:10136000FEE700BF3801012060790008451600083B
:101370003C0101205801012084010120024A136828
:1013800001331360704700BF04010120F8B53A4BE8
:101390001B68002B64D1394B1D6801351D60C5B930
:1013A000374B1B681B6843B14FF0500383F3118820
:1013B000BFF36F8FBFF34F8FFEE7314A1168314B98
:1013C000186810601960304A136801331360FFF722
:1013D00029FE2E4B1B68AB4238D900242C4B1B68CE
:1013E000DB6A03EB83039A002A4B9B58012B3CD901
:1013F00001243AE00124224B1B681B6843B3204BB5
:101400001B68DB68DE6873689D4226D3371D38464B
:10141000FFF7F5FDB36A1BB106F11800FFF7EFFD0A
:10142000F36A01229A401C49086802430A6003EBF0
:1014300083039A00394617481044FFF7BCFDF26A4F
:10144000134B1B68DB6A9A42D4D2D4E70024D2E75C
:101450000E4B4FF0FF321A60C0E70C4A1360BDE735
:101460000E4A13680133136000240D4B1B6803B14F
:1014700001242046F8BD00BF0401012084010120A1
:101480006400012068000120400101203C0101208E
:10149000600001206C0001200C01012000010120EE
:1014A0008801012038B5344B1B6843B94FF0500315
:1014B00083F31188BFF36F8FBFF34F8FFEE700F008
:1014C000A9F92D4B1A68013A1A601B68002B4DD1FF
:1014D0002A4B1B680BB9002449E00024284B1B68E9
:1014E0001BB3274BDB68DC6804F11800FFF787FDAE
:1014F000251D2846FFF783FDE06A01238340214A2A
:1015000011680B43136000EB800029461E4B03EB70
:101510008000FFF750FDE26A1C4B1B68DB6A9A42B1
:10152000DCD31B4B01221A60D8E70CB1FFF77AFD20
:10153000184B1C6874B9164B1C68C4B1164B4FF09D
:1015400080521A60BFF34F8FBFF36F8F01240EE0FC
:10155000013C07D0FFF71AFF0028F9D00C4B0122FD
:101560001A60F5E70B4B00221A60E4E7002400F054
:1015700073F9204638BD00BF04010120F8000120A6
:10158000440101200C0101206C00012060000120B9
:10159000880101200001012004ED00E010B5A8B190
:1015A00004460F4B1B6843B14FF0500383F311887F
:1015B000BFF36F8FBFF34F8FFEE7FFF7DFFE002112
:1015C0002046FFF71FFEFFF76DFF38B9054B4FF0C0
:1015D00080521A60BFF34F8FBFF36F8F10BD00BFF3
:1015E0000401012004ED00E0134B1B6813B310B598
:1015F000FFF7C4FE114B1C68FFF754FF24B90E4BD4
:101600001B68002BF4D110BD00F004F90B4BDB6814
:10161000DC68201DFFF7F3FC094A1368013B1360E7
:10162000054A1368013B136000F016F92046FFF7E6
:101630000FFDE4E7704700BFFC00012070010120AE
:10164000F800012008B5FFF7CFFF064B1B68012B00
:10165000F9D9054B4FF080521A60BFF34F8FBFF39B
:101660006F8FF0E76C00012004ED00E02C4B1B684D
:101670001BB12C4B01221A60704710B5294B002278
:101680001A60294B1B681B6B1A68B2F1A53F03D186
:101690005A68B2F1A53F1BD0234B18681968343142
:1016A00000F0EBFA214B1B68B3FA83F3DBB2C3F112
:1016B0001F0303EB83018A001D498A588AB94FF042
:1016C000500383F31188BFF36F8FBFF34F8FFEE793
:1016D0009A68B2F1A53FDFD1DB68B3F1A53FDBD15A
:1016E000E0E7134903EB830082000A445068406836
:1016F000506003EB8304A200144608321144884270
:1017000009D003EB83039A00094B13445B68DA6842
:10171000054B1A6010BD4068054A22445060F0E74E
:101720000401012088010120600001200C0101203A
:101730006C000120054B1B6833B1054B1B680BB1D6
:101740000020704702207047012070475801012097
:10175000040101200B4B1B68B3F1FF3F08D04FF091
:10176000500383F31188BFF36F8FBFF34F8FFEE7F2
:101770004FF0500383F31188BFF36F8FBFF34F8F88
:10178000FEE700BF4800002006480068006880F3BC
:10179000088862B661B6BFF34F8FBFF36F8F00DF6B
:1017A00000BF000008ED00E0DFF80C00016841F424
:1017B000700101607047000088ED00E04FF0807319
:1017C00040F8043C21F0010140F8081C054B40F8AA
:1017D0000C3C40F8202C6FF0020340F8243C4438C5
:1017E000704700BF5517000800000000000000000F
:1017F000074B19680868B0E8F04F80F30988BFF319
:101800006F8F4FF0000080F311887047AFF30080B6
:10181000600001204FF0500383F31188BFF36F8FF6
:10182000BFF34F8F0A4A136801331360012B00D0B6
:101830007047084B1B6813F0FF0FF9D04FF05003AF
:1018400083F31188BFF36F8FBFF34F8FFEE700BFA5
:101850004800002004ED00E0094B1B6843B94FF03D
:10186000500383F31188BFF36F8FBFF34F8FFEE7F1
:10187000013B034A13600BB983F31188704700BF23
:1018800048000020000000000000000000000000F0
:10189000EFF30980BFF36F8F154B1A681EF0100F1E
:1018A00008BF20ED108A20E9F04F10604DF8043D8C
:1018B0004FF0500080F31188BFF34F8FBFF36F8F4D
:1018C000FFF7D4FE4FF0000080F3118808BC1968C0
:1018D0000868B0E8F04F1EF0100F08BFB0EC108A97
:1018E00080F30988BFF36F8F704700BFAFF30080AC
:1018F0006000012008B54FF0500383F31188BFF357
:101900006F8FBFF34F8FFFF741FD18B1034B4FF0BF
:1019100080521A60002383F3118808BD04ED00E0B3
:10192000064B1B68064AA2FB03239B09013B054AA1
:101930001360054B07221A60704700BF4C0000205F
:10194000D34D621014E000E010E000E0314B1A6863
:10195000314B9A421AD02F4B1A68304B9A421ED004
:1019600000B583B02E4B1A78D2B20192FF221A70C2
:101970001B78DBB28DF803309DF8033003F0500381
:10198000284A1370284B07221A601BE04FF05003BF
:1019900083F31188BFF36F8FBFF34F8FFEE74FF0D4
:1019A000500383F31188BFF36F8FBFF34F8FFEE7B0
:1019B0001D4A1368013B13609DF803305B00DBB2E6
:1019C0008DF803309DF8033013F0800FF0D1164AE4
:1019D00013681B0203F4E0631360019BDBB2104A3F
:1019E0001370124B1A6842F470021A601A6842F0BF
:1019F00070421A60FFF794FF0D4B00221A60FFF748
:101A0000D3FE0C4A136843F040431360FFF7BCFE5B
:101A1000FFF7A0FE00ED00E071C20F4170C20F4160
:101A200000E400E08C0101209001012020ED00E0A5
:101A30004800002034EF00E0124A12F0070F1ED0D9
:101A4000D11D21F00701C1F5704313440A460E4829
:101A50000260002141601344083B23F007030B4858
:101A6000036059601960991A51601360084B19603E
:101A7000084B1960084B4FF000421A6070474FF452
:101A80007043E4E798010120A4F1012094010120B2
:101A9000A0F101209CF1012098F1012010B4134B1A
:101AA0001A461B688342FBD35168541884420AD0FB
:101AB00041684418A3420BD00360904200D01060EC
:101AC0005DF8044B70474068014451601046EFE7F1
:101AD000074C2468A34206D05B6819444160136830
:101AE0001B680360E9E70460E7E700BFA4F1012099
:101AF0009401012070B50446FFF740FC394B1B6888
:101B00009BB1394B1B681C4212D134B1083414F01C
:101B1000070F02D024F007040834D4B1334B1B68FC
:101B2000A3421AD3324B1D681DE0FFF785FFE8E79B
:101B3000FFF7B8FC002600F0A1F816F0070F4FD011
:101B40004FF0500383F31188BFF36F8FBFF34F8FB4
:101B5000FEE7FFF7A7FC0026EDE7FFF7A3FC002652
:101B6000E9E72B4615466A68A24202D22A68002A93
:101B7000F7D11C4A1268AA4214D01E6808362A6897
:101B80001A606B681B1B102B14D9281910F0070F53
:101B90000CD04FF0500383F31188BFF36F8FBFF366
:101BA0004F8FFEE7FFF77EFC0026C4E743606C60C2
:101BB000FFF774FF6A680D490B689B1A0B600D49AB
:101BC00009688B4201D20B490B60074B1B6813431A
:101BD0006B6000232B60FFF765FC002EADD1AAE7F8
:101BE000304670BD9401012098F101209CF1012044
:101BF000A4F10120A0F1012080B338B50446A0F182
:101C0000080550F8043C164A1268134208D14FF0F8
:101C1000500383F31188BFF36F8FBFF34F8FFEE73D
:101C200050F8081C41B14FF0500383F31188BFF303
:101C30006F8FBFF34F8FFEE723EA020340F8043CA7
:101C4000FFF79CFB54F8041C064A13680B4413600E
:101C50002846FFF723FFFFF725FC38BD704700BF7C
:101C600098F101209CF1012008B500F043FBFEF73C
:101C70003FFD0220FFF781F9F9E770477047000048
:101C800030B587B001AC064D0FCD0FC42B68236073
:101C9000002101A8FFF757F9024B186007B030BDCB
:101CA0001473000898FB01202DE9F0418EB0002448
:101CB0000094714B1A6B42F001021A631A6B02F026
:101CC00001020092009A01941A6B42F002021A6318
:101CD0001A6B02F002020192019A02941A6B42F00E
:101CE00004021A631A6B02F004020292029A03942D
:101CF0001A6B42F008021A631A6B02F00802039290
:101D0000039A04941A6B42F010021A631A6B02F0E1
:101D100010020492049A05941A6B42F020021A638E
:101D20001A6B02F020020592059A06941A6B42F093
:101D300040021A631A6B02F040020692069A079458
:101D40001A6B42F080021A631A6B02F0800207924B
:101D5000079A08941A6B42F480721A631B6B03F49F
:101D600080730893089B454F01220421384601F0F7
:101D700050FFDFF8148101223C21404601F049FF69
:101D80003F4E224644F24001304601F042FF2246D7
:101D90004FF40061384601F03CFF22464FF4804189
:101DA000304601F036FF40F60403099301250A95F9
:101DB0000B940C9409A9384601F032FE3C23099398
:101DC0000A950B940C9409A9404601F029FE4FF4A2
:101DD00080630993DFF8B480CDF828800B9509A9BA
:101DE000304601F01DFE4FF4006309930A950B94F1
:101DF0000C9409A9384601F013FE4FF4805309935F
:101E00000A950B9503230C93A7F5806709A938461B
:101E100001F006FE402309930A940B950C9409A93E
:101E2000384601F0FDFD44F2400309930A950B94F6
:101E30000C9409A9304601F0F3FD04230993CDF871
:101E4000288002230B930C9409A90E4801F0E8FDA9
:101E500022460521282001F02BFC282001F05CFC03
:101E600022460521082001F023FC082001F054FC43
:101E70000EB0BDE8F08100BF003802400010024003
:101E80000014024000040240001C02400000311017
:101E900008B50268034B9A4200D008BD01F052F920
:101EA000FBE700BF000C0040FEE7000000B595B066
:101EB000002101912B4B1A6C42F080521A641B6C6A
:101EC00003F080530193019B0291274B1A6842F45F
:101ED00040421A601B6803F440430293029B0123B3
:101EE00008934FF48033099302230E934FF480023A
:101EF0000F9206221092A822119212930723139395
:101F000008A802F0AFFB20BB0F2303930223049326
:101F1000002305934FF4A05306934FF48053079387
:101F2000052103A802F0BAFDB8B902F065FE0F4B17
:101F3000A3FB0030800901F0FBFB042001F00EFC44
:101F400000220F214FF0FF3001F0B2FB15B05DF819
:101F500004FBB5210648FFF7A7FFC3210448FFF79C
:101F6000A3FF00BF0038024000700040D34D621054
:101F70007479000808B501F0CBF8FFF797FFFFF779
:101F800049FCFFF791FEFEF745F9FFF779FEFFF7F1
:101F900063FCFEF7D3FFFEE710B582B00024009487
:101FA000214B5A6C42F480425A645A6C02F48042CB
:101FB0000092009A01941A6C42F080521A641B6CD1
:101FC00003F080530193019B032001F05FFB224645
:101FD00021466FF00B0001F06BFB224621466FF0AB
:101FE0000A0001F065FB224621466FF0090001F06E
:101FF0005FFB224621466FF0040001F059FB2246A8
:1020000021466FF0030001F053FB22460F216FF0D1
:10201000010001F04DFB22460F214FF0FF3001F08F
:1020200047FB02B010BD00BF0038024010B588B0B9
:1020300001460022322001F03BFB322001F06CFB14
:1020400000240194144B1A6C42F008021A641B6CB1
:1020500003F008030193019B02A903A802F0E2FD2B
:1020600002F0D0FD43000D48A0FB03239B0C013B75
:102070000B480C4A026040F2E732C26043600461E0
:10208000846002F01BFF10B1012008B010BD0448AD
:1020900002F0E6FDF9E700BF0038024083DE1B4393
:1020A0009CFB0120000C004070470000034B1B68A4
:1020B00013F0010F00D000BEFEE700BFF0ED00E01E
:1020C000FEE7FEE7FEE7704708B5FEF75DFF08BDD7
:1020D00008B5024801F0B6FB08BD00BF28FD01208D
:1020E00008B5024801F0AEFB08BD00BFC8FD0120E5
:1020F00008B5024801F090F908BD00BF70FB01204F
:1021000008B5024801F088F908BD00BF70FB012046
:1021100008B5024802F0B4FD08BD00BF50FC012024
:1021200010B5044C2046FEF7A3F9204603F014F83E
:1021300010BD00BFE8FE012008B5FEF74DFA0248C9
:1021400003F00AF808BD00BF88FD012008B5024869
:1021500002F096FD08BD00BF9CFB012008B54FF4BE
:10216000806001F061FD08BD08B5042001F05CFD50
:1021700008BD000008B5024801F064FB08BD00BFBF
:10218000C8FC012008B5024801F046F908BD00BFAF
:1021900048FB012008B5024801F03EF908BD00BF28
:1021A00048FB012008B5024801F028FE08BD00BF29
:1021B000A429022008B5024801F044FB08BD00BF75
:1021C00088FE012008B5024801F03CFB08BD00BFB5
:1021D00028FE012008B5FEF7FFF9024802F0BCFF17
:1021E00008BD00BF28FF01200F49D1F8883043F413
:1021F0007003C1F888300D4B1A6842F001021A6072
:10220000002098601A6822F0847222F480321A60EA
:10221000074A5A601A6822F480221A60D8604FF088
:1022200000638B60704700BF00ED00E000380240A3
:10223000103000240368B3F1804F00D0704700B520
:1022400083B00022019203F50E33196C41F00101B5
:1022500019641B6C03F001030193019B05211C20F1
:1022600001F026FA1C2001F057FA03B05DF804FBD8
:10227000002070470020704770B505460E460024C8
:1022800000E00134042C08DC094B53F82430002B07
:10229000F7D0316828469847F3E7064C2946204690
:1022A00000F017FF204600F01AFF002070BD00BFAD
:1022B000ACF101208027022010B5094C0022094909
:1022C000204600F0FEFE0849204600F002FF4FF4D1
:1022D000805206490648FEF75BFC002010BD00BF97
:1022E000802702206817022068FF0120680702206B
:1022F0006827022010B5094C00220949204600F049
:10230000E9F90849204600F0FCF90749204600F0A9
:10231000D1FE204600F0FCF910BD00BF802702204E
:102320006000002094000020500000200368B3F1FA
:10233000A04F00D0704710B586B04FF4C053019342
:102340000223029300240394032304930A23059396
:1023500001A90E4801F064FB0D4B5A6B42F080025C
:102360005A6300945A6C42F480425A645B6C03F4E2
:1023700080430093009B22460521432001F098F9F9
:10238000432001F0C9F906B010BD00BF00000240B3
:102390000038024008B500F56F71D0F8EC0300F08A
:1023A000CFF908BD08B5C1EBC10300EB8303D3F837
:1023B0000422D0F8EC0300F0F0F908BD08B5C1EB39
:1023C000C10300EB83035A6CD0F8EC0300F01BFA56
:1023D00008BD08B5D0F8EC0300F09FFA08BD10B5B1
:1023E0000446C3684BB10121D4F8EC0300F083FA32
:1023F000D4F8EC0300F060FA10BD0021F4E700000F
:1024000010B50446D0F8EC0300F078FA2268D2F850
:10241000003E43F00103C2F8003E236A23B1034AA1
:10242000136943F00603136110BD00BF00ED00E027
:1024300008B5D0F8EC0300F06AFA08BD08B5D0F88A
:10244000EC0300F07AFA08BD08B5D0F8EC0300F010
:1024500072FA08BD08B5D0F8EC0300F070FA08BDB8
:1024600008B5D0F8EC0300F06CFA08BD02780AB1A8
:102470000020704710B503461748C0F8EC33C3F886
:1024800020024FF0A0430360042343600222C26095
:102490000023036143618261C36103624362C362DB
:1024A000036301F025FC80B90B4C8021204602F02B
:1024B000D5F840220021204602F0ACF8802201210C
:1024C000204602F0A7F8002010BD4FF4A571034884
:1024D000FFF7EAFCE8E700BFA4290220A87900087A
:1024E00008B5D0F8200201F073FC022805D8DFE817
:1024F00000F005040200012000E0022008BD10B534
:1025000014461A462346D0F8200201F065FF02283F
:1025100005D8DFE800F005040200012000E00220F9
:1025200010BD08B5D0F8200201F08AFF022805D8B6
:10253000DFE800F005040200012000E0022008BDF1
:1025400008B5D0F8200202F007F8022805D8DFE825
:1025500000F005040200012000E0022008BD08B5DB
:10256000D0F8200202F02BF8022805D8DFE800F0AE
:1025700005040200012000E0022008BDD0F820324E
:1025800011F0800F08D101F07F01C1EBC10103EB15
:10259000810191F8FA01704701F07F01C1EBC1019F
:1025A00003EB810191F83A00704708B5D0F820029A
:1025B00001F000FF022805D8DFE800F00504020062
:1025C000012000E0022008BD08B5D0F8200201F08B
:1025D00099FF022805D8DFE800F005040200012079
:1025E00000E0022008BD08B5D0F8200201F053FF3A
:1025F000022805D8DFE800F005040200012000E011
:10260000022008BD08B5D0F8200201F072FF08BD15
:1026100012230B80004870477C00002004230B80AD
:10262000004870479000002008B50A4628B90549BF
:10263000054800F0F1FB034808BD0249024800F0DC
:10264000EBFBF8E7942D0220D479000810B50A4678
:10265000034C2146034800F0DFFB204610BD00BFBD
:10266000942D0220EC79000808B50A4628B90549DE
:10267000054800F0D1FB034808BD0249024800F0BC
:10268000CBFBF8E7942D0220007A000808B50A4633
:1026900028B90549054800F0BFFB034808BD0249B9
:1026A000024800F0B9FBF8E7942D0220107A0008E8
:1026B00008B50A4628B90549054800F0ADFB0348AE
:1026C00008BD0249024800F0A7FBF8E7942D02205C
:1026D0001C7A000898B108B50346D0F8140210B16E
:1026E0000020C3F8140209B1C3F81012012183F8C5
:1026F000FC111A701846FFF7B9FE002008BD022031
:10270000704719B1C0F814120020704702207047BA
:1027100008B5FFF7E5FE002008BD08B5D0F8143273
:102720002BB11B68984700B908BD0220FCE70220C6
:10273000FAE708B5D0F814325B689847002008BD66
:1027400038B5044600F50275284600F01EF901234D
:10275000C4F8F431B4F80E32C4F8F83194F8081221
:1027600001F01F03012B0ED0022B11D02BB101F071
:1027700080012046FFF7E4FE03E02946204600F0F2
:102780007EFA002038BD2946204600F09CFAF8E782
:102790002946204600F0B2FAF3E710B5044629BBFB
:1027A0001346D0F8F421032A01D0002010BDD0F840
:1027B0000C11D0F8102191420BD8D0F814321B69BB
:1027C0001BB190F8FC21032A0ED0204600F06DFBCF
:1027D000EBE7891AC0F80C118A4228BF0A4692B268
:1027E000194600F05AFBE0E79847EEE70A46D0F8B2
:1027F00014329B69002BD8D090F8FC110329D4D156
:1028000011469847D1E710B50446002947D1134631
:10281000D0F8F421022A05D094F80032012B3AD0E6
:10282000002010BDC169026A914217D88169B1FBCD
:10283000F2F302FB13132BB98A4203D8D0F8F83114
:10284000994218D3D4F81432DB681BB194F8FC21F8
:10285000032A1DD0204600F033FBDDE78A1AC2614F
:1028600092B2194600F002FB00231A461946204690
:10287000FFF7B9FED0E70022114600F0F7FA002179
:10288000C4F8F8110B460A462046FFF7ACFEC3E732
:1028900020469847DEE7002384F80032C0E70A4666
:1028A000D0F814325B69002BBAD090F8FC110329E0
:1028B000B6D111469847B3E738B504464023002205
:1028C0001146FFF71CFE4025C4F810512B4600228C
:1028D00080212046FFF713FE2562012384F8FC3196
:1028E000D4F818322BB1D4F814325B682179204621
:1028F0009847002038BD01740020704790F8FC31E3
:1029000080F8FD31042380F8FC310020704790F8F6
:10291000FD3180F8FC310020704708B590F8FC319B
:10292000032B01D0002008BDD0F81432DB69002B46
:10293000F8D09847F6E70020704700207047002045
:10294000704708B5012280F8FC21D0F814225268A3
:1029500001799047002008BD034600201A781AB17B
:102960000130C0B20133F9E770474B88012B00D02A
:10297000704710B50446C0F80432D0F814329B6892
:102980009847204600F091FA10BD0B7803704B7801
:1029900043708B78CA7803EB022343800B794A7922
:1029A00003EB022383808B79CA7903EB0223C38074
:1029B000704710B504468021FFF7C2FD0021204674
:1029C000FFF7BEFD10BD30B583B004460D464A8802
:1029D000130A013B062B00F28180DFE803F00413A9
:1029E000277F7F637000D0F810321B680DF106015D
:1029F000007C9847BDF8062012B1EB88002B71D1FE
:102A000003B030BD037C43B9D0F814329B6A0DF19A
:102A10000600984702234370ECE7D0F81432DB6AD3
:102A20000DF10600984702234370E3E7D2B2052A6E
:102A300034D8DFE802F0030B131B232BD0F810323D
:102A40005B680DF10601007C9847D3E7D0F810329F
:102A50009B680DF10601007C9847CBE7D0F8103257
:102A6000DB680DF10601007C9847C3E7D0F810320F
:102A70001B690DF10601007C9847BBE7D0F81032C6
:102A80005B690DF10601007C9847B3E7D0F810327E
:102A90009B690DF10601007C9847ABE72946FFF7DB
:102AA00088FFADE7037C33B9D0F814325B6B0DF1CE
:102AB000060098479EE72946FFF77BFFA0E7037CC7
:102AC00043B9D0F814321B6B0DF106009847072369
:102AD00043708FE72946FFF76CFF91E72946FFF720
:102AE00068FF8DE79A4228BF1A46ADF806200146D6
:102AF000204600F0AEF983E738B504468B88E3B989
:102B0000CB88D3B98D7805F07F0590F8FC31032B85
:102B10000CD080F8FE512946FFF747FD204600F013
:102B2000C4F935B1022384F8FC3109E0FFF741FF15
:102B300006E0012384F8FC3102E02046FFF739FF6C
:102B400038BD000038B504460D468978254B19700C
:102B5000012909D890F8FC31022B09D0032B1CD095
:102B60002946FFF726FF02E02946FFF722FF38BD7E
:102B700081B14160032380F8FC31FFF7CEFD0228CC
:102B800003D0204600F091F9F1E729462046FFF7EF
:102B900010FFECE700F089F9E9E789B14368994251
:102BA0001DD0D9B2FFF7C5FD0E4B197861602046E4
:102BB000FFF7B3FD02280DD0204600F076F9D6E7E6
:102BC000022380F8FC314160FFF7B3FD204600F09E
:102BD0006CF9CCE729462046FFF7EBFEC7E700F08B
:102BE00064F9C4E7C0F1012008B5CB88012B08D1F6
:102BF00090F8FC31022B07D0032B0DD0FFF7D9FE44
:102C000001E0FFF7D6FE08BD0146002341F8083F6A
:102C1000012200F01EF9F6E70122011D00F019F96A
:102C2000F1E708B590F8FC31023B012B0CD80123E9
:102C3000C360D0F804320BB10323C360022200F159
:102C40000C0100F006F908BDFFF7B3FEFBE710B575
:102C5000044690F8FC31023B012B0DD84B88012B28
:102C60000CD10023C0F80432D0F814329B68984786
:102C7000204600F01AF901E0FFF79BFE10BD08B5F1
:102C80004B78092B1CD8DFE803F012181B151B0921
:102C9000051B0F0CFFF797FE002008BDFFF72CFF68
:102CA000FAE7FFF74FFFF7E7FFF79EFFF4E7FFF7BD
:102CB000B8FFF1E7FFF759FEEEE7FFF7C8FFEBE7D4
:102CC000FFF777FEE8E738B504460D4690F8FC318B
:102CD000032B0FD10B79012B09D8D0F814329B6844
:102CE0009847EB8843B9204600F0DFF804E0FFF78F
:102CF00060FE01E0FFF75DFE002038BD38B50546F7
:102D00000C468A880B7803F06003202B09D0D1B2DF
:102D10006378012B2DD0032B08D0002B4DD0002041
:102D200038BDD0F814329B689847F8E790F8FC312A
:102D3000022B05D0032B0AD02146FFF73AFEEEE71F
:102D40000029ECD08029EAD0FFF7FAFBE7E7638897
:102D500013B909B1802909D1D5F814329B682146ED
:102D600028469847284600F0A0F8D8E7FFF7E8FB88
:102D7000F2E790F8FC31022B05D0032B0AD0214654
:102D8000FFF717FECBE70029C9D08029C7D0FFF78E
:102D9000D7FBC4E76388002BC1D111F07F0F03D1AB
:102DA000284600F082F8BAE7FFF7D9FBD5F81432CD
:102DB0009B68214628469847F2E790F8FC31022BA1
:102DC00005D0032B09D02146FFF7F3FDA7E711F04B
:102DD0007F0FA4D0FFF7B4FBA1E712F0800F11D151
:102DE00001F07F04103400EB041404342846FFF78C
:102DF000C5FB70B10123236002222146284600F062
:102E000028F88CE701F07F04013400EB041404344B
:102E1000ECE700232360EFE7D0B170B50D4616460E
:102E20000446FFF799FD431C5B009BB233802B7077
:102E300003236B70022307E001345A1CD2B2E8541A
:102E40000233DBB20021A95420780028F4D170BDF0
:102E5000704710B513460222C0F8F4218361C361A4
:102E60000A460021FFF7B0FB002010BD08B513464D
:102E70000A460021FFF7A8FB002008BD10B5134645
:102E80000322C0F8F421C0F80831C0F80C310A461A
:102E90000021FFF7A8FB002010BD08B513460A4625
:102EA0000021FFF7A0FB002008BD08B50423C0F8EF
:102EB000F43100231A461946FFF786FB002008BDAF
:102EC00008B50523C0F8F43100231A461946FFF768
:102ED0008AFB002008BDD0F818321BB10020C3F8CF
:102EE000140270470220704710B5D0F81842D0F88D
:102EF0001C325BB194F80002FF2807D09B6894F85D
:102F0000012221469847FF2384F80032002010BD9B
:102F10004323038000487047CC00002043230380F4
:102F20000048704710010020432303800048704789
:102F3000600100200A2303800048704754010020EC
:102F400038B50446D0F81852FFF75CFBC5F80C0200
:102F5000D4F818324BB1D4F81C32DB6805F5037194
:102F6000D5F804029847002038BD0220FCE7000095
:102F700070B505460C46D0F818620B7813F0600265
:102F800024D0202A25D1CA88CAB113F0800F0BD0D3
:102F9000D0F81C329B68314660789847E288314609
:102FA0002846FFF756FF14E04B7886F80032CB88AE
:102FB00086F80132CA883146FFF760FF09E0D0F891
:102FC0001C329B6800224878984702E04B780A2B15
:102FD00001D0002070BD01220149FFF73AFFF8E758
:102FE000C1F1012010B504468121FFF79AFA0121B1
:102FF0002046FFF796FA82212046FFF792FAD4F88E
:10300000183253B1D4F81C325B689847D4F81802D0
:10301000FDF7FAFE0023C4F81832002010BD70B589
:103020000446037C7BBB4FF4007302228121FFF72F
:1030300066FA4FF40073022201212046FFF75FFA7F
:103040000823032282212046FFF759FA4FF4077024
:10305000FDF76AFE0546C4F8180248B3D4F81C32DE
:103060001B6898470023C5F81432C5F81832267C2F
:10307000AEB94FF40073D5F8042201212046FFF7C2
:10308000B2FA304670BD402302228121FFF737FAA1
:103090004023022201212046FFF731FAD0E74023E6
:1030A000D5F8042201212046FFF79DFA0026E8E723
:1030B0000126E6E719B1C0F81C1200207047022073
:1030C0007047D0F81832C3F80812C3F81022002055
:1030D0007047D0F81832C3F8041200207047D0F8B7
:1030E000182292B108B5037C43B94FF40073D2F8AB
:1030F00004220121FFF777FA002008BD4023D2F80F
:1031000004220121FFF76FFAF6E702207047000062
:1031100008B50B4B1A6842F400721A601A6842F440
:1031200080621A601A6842F480721A60032000F00C
:10313000ADFA0020FEF77AFFFEF72EFF002008BD53
:10314000003C0240034A1168034B1B780B44136098
:10315000704700BF942F0220A3010020014B186884
:10316000704700BF942F022038B50446FFF7F6FFE2
:103170000546B4F1FF3F02D0044B1B781C44FFF717
:10318000EDFF401BA042FAD338BD00BFA3010020D1
:1031900070B490F82040E4B2012C04D090F82040A4
:1031A000E4B2022C69D10468A56815F0806F07D1DC
:1031B000A56815F0006F03D1A56815F0805F56D0A3
:1031C000A468C4F301640125A5401D608B68002B31
:1031D0003AD10E68CB68056843EA465604F11803F5
:1031E0001B01EE5003680D6904F1180603EB06138A
:1031F0005D600B7D012B32D0D17993791B0443EABA
:103200000163517943EA0123157901682B4301EBEE
:103210000411C1F88C31D17893781B0443EA01631F
:10322000517843EA0123117802680B4302EB041240
:10323000C2F88831026818342401135943F001039D
:103240001351002070BC70474D6843EAC503CD6838
:1032500006682B4304F118052D017351C2E703687A
:1032600003EB0613596841F480715960C4E7436A5F
:1032700043F4001343620120E4E7436A43F48023EC
:1032800043620120DEE790F82030DBB2012B06D04C
:1032900090F82030DBB2022B01D000207047036889
:1032A000986810F0806000D001209A6812F0006FDA
:1032B00000D001309B6813F0805FEFD00130704781
:1032C00030B490F82040E4B2012C05D090F82040B2
:1032D000E4B2022C40F0928051B90468E46814F022
:1032E000030F12D1436A43F400134362012073E0D9
:1032F00001290AD10468246914F0030F05D1436A37
:1033000043F400134362012066E0056801F11B04E9
:1033100024012C5904F004049460002C5ED105684B
:1033200001F11B0424012C59640D1460056801F19E
:103330001B0424012D59C5F34005D56005682544BB
:103340006D6805F00F051561056825446D68C5F3C6
:103350000725956105682C446468240C5461026853
:1033600002EB0112D2F8B8211A70026802EB0112C6
:10337000D2F8B821120A5A70026802EB0112D2F890
:10338000B821120C9A70026802EB0112D2F8B8212F
:10339000120EDA70026802EB0112D2F8BC211A7127
:1033A000026802EB0112D2F8BC21120A5A710268BB
:1033B00002EB0112D2F8BC21120C9A71026802EBE6
:1033C0000112D2F8BC21120EDA7179B90268D36801
:1033D00043F02003D360002030BC7047056801F142
:1033E0001B0424012C59E40854609FE70129F2D101
:1033F0000268136943F020031361ECE7436A43F466
:10340000802343620120E7E77047704770477047A9
:1034100070477047704770472DE9F84F05460368BD
:103420005C69D3F804809F68D3F80CB0D3F810A07F
:10343000D3F8189014F001063BD017F0010616D00F
:1034400001229A6017F0020F08D117F0040F0CD177
:1034500017F0080606D04FF4805608E0FCF76CFF22
:10346000002604E0FFF7D0FF01E04FF4006617F4F8
:10347000807F0DD02B684FF480729A6017F4007F24
:1034800040F0868017F4806F00F0868046F4005686
:1034900017F4803F0DD02B684FF480329A6017F4F8
:1034A000003F40F0838017F4802F00F0838046F4C3
:1034B000004614F0080F07D01BF0100F04D046F49C
:1034C00000762B681022DA6014F0040F02D01BF093
:1034D000080F79D114F0020F04D02B68DB6813F0C9
:1034E000030F78D114F0400F07D01AF0100F04D05A
:1034F00046F480662B6810221A6114F0200F02D067
:103500001AF0080F6BD114F0100F04D02B681B6950
:1035100013F0030F6AD114F4003F02D018F0100F1B
:1035200068D114F4803F02D018F0080F69D114F468
:10353000004F7AD018F0040F74D014F4807F04D0B8
:1035400019F0010F01D046F0010614F4007F04D0F9
:1035500019F0020F01D046F0020614F4806F04D077
:1035600019F0040F01D046F0040614F4006F59D08E
:1035700019F0700956D0B9F1400F65D058D8B9F19B
:10358000200F5ED0B9F1300F42D146F0200644E062
:103590002846FCF7E9FE7BE717F4006F02D046F4FB
:1035A000804675E72846FFF730FF71E72846FCF7AD
:1035B000F3FE7EE717F4002F02D046F4803678E75A
:1035C0002846FFF723FF74E72B680822DA602846B5
:1035D000FFF71DFF7EE72846FCF712FF82E72B6806
:1035E00008221A612846FFF714FF8CE72846FFF7E8
:1035F0000FFF90E72B6810225A602846FFF70AFF5A
:103600008FE72B6808225A602846FFF704FF8EE7F1
:10361000B9F1100F01D146F008062A68936923F02A
:10362000700393612B6804225A609EB9BDE8F88F3D
:10363000B9F1500F0BD0B9F1600FEED146F480769E
:10364000EBE746F01006E8E746F04006E5E746F00F
:103650008006E2E76B6A1E436E622846FCF7B4FE02
:10366000E4E790F82030DBB2012B0AD090F820304C
:10367000DBB2022B05D0436A43F48023436201206E
:10368000704700234362184670470000074AD3681A
:1036900023F4E0631B041B0C000200F4E06003430E
:1036A00043F0BF6343F40033D360704700ED00E0A4
:1036B00030B4174BDB68C3F30223C3F10704042CB7
:1036C00028BF04241D1D062D18D9033B4FF0FF35DC
:1036D00005FA04F421EA0401994005FA03F322EA09
:1036E0000303194300280BDB0901C9B200F1604054
:1036F00000F5614080F8001330BC70470023E5E717
:1037000000F00F000901C9B2024B1954F4E700BFE1
:1037100000ED00E014ED00E000F01F02400901237D
:103720009340024A42F82030704700BF00E100E0B9
:103730000138B0F1807F0AD2064B5860064AF0216A
:1037400082F823100020986007221A607047012039
:10375000704700BF10E000E000ED00E0042805D055
:10376000054A136823F0040313607047024A136884
:1037700043F004031360704710E000E030B40568C4
:103780002C6824F480242C60046863608368402BD8
:1037900005D0036899600368DA6030BC704703683D
:1037A0009A600368D960F8E738B50446856D90F8EB
:1037B0003400012830D0012084F8340094F835001A
:1037C000C0B2012804D0002384F83430022038BD70
:1037D000022084F83500002060652046FFF7CEFF08
:1037E000E26D3F239340AB602268136843F01603F9
:1037F00013602268536943F080035361236C23B143
:103800002268136843F0080313602268136843F0CA
:10381000010313600020DAE70220D8E790F8353082
:10382000DBB2022B03D080234365012070470523C0
:1038300080F835300268136823F00103136000201C
:1038400070470000F0B583B0044600230193724B2B
:103850001D68724BA3FB0535AD0A876D3E68C26DCE
:1038600008239340334210D003681A6812F0040F03
:103870000BD01A6822F004021A60C26D082393402C
:10388000BB60436D43F001034365E26D0123934048
:10389000334209D02268526912F0800F04D0BB6015
:1038A000636D43F002036365E26D0423934033428A
:1038B00009D02268126812F0020F04D0BB60636D59
:1038C00043F004036365E26D10239340334224D038
:1038D0002268126812F0080F1FD0BB6023681A68B4
:1038E00012F4802F0DD01B6813F4002F04D1236C29
:1038F0009BB12046984710E0A36C73B120469847CF
:103900000BE01A6812F4807F03D11A6822F00802D3
:103910001A60236C0BB120469847E26D2023934038
:10392000334255D02268126812F0100F50D0BB609D
:1039300094F83530DBB2052B0ED023681A6812F4E8
:10394000802F33D01B6813F4002F2AD1636C002B17
:103950003ED0204698473BE02268136823F01603C8
:1039600013602268536923F080035361236CA3B171
:103970002268136823F008031360E26D3F2393402D
:10398000BB60002384F83430012384F83530236D84
:10399000002B3FD0204698473CE0A36C002BE7D19A
:1039A000EBE7E36BA3B12046984711E01A6812F4E5
:1039B000807F09D11A6822F010021A60002384F86F
:1039C0003430012384F83530E36B0BB1204698473F
:1039D000636DFBB1636D13F0010F17D0052384F8FD
:1039E00035302268136823F001031360019B013313
:1039F0000193AB4204D823681B6813F0010FF5D183
:103A0000002384F83430012384F83530E36C0BB1A3
:103A10002046984703B0F0BD4C000020B5814E1BF6
:103A200000230F2B00F2E580F0B482B039E00922C8
:103A300000E00022B2403A4302346E4E46F82420A1
:103A40006D4A1468EA4324EA05064F6817F4803F7C
:103A500001D045EA0406684C2660646802EA040660
:103A60004F6817F4003F01D045EA0406624C6660D7
:103A7000A46802EA04064F6817F4801F01D045EAE3
:103A800004065D4CA660E46822404E6816F4001FF0
:103A900001D045EA0402584CE26001330F2B00F2DA
:103AA000A58001229A400C6804EA020532EA040467
:103AB000F3D14C68022C01D0122C10D1DE0808364C
:103AC00050F826C003F00704A7000F24BC402CEADE
:103AD000040C0C69BC4044EA0C0440F82640D0F8C1
:103AE00000C05E000324B440E7432CEA040C4C6899
:103AF00004F00304B44044EA0C0404604C6804F18C
:103B0000FF3CBCF1010F03D9112C01D0122C10D1B4
:103B1000846807EA040CCC68B44044EA0C0484606E
:103B2000446824EA02024C68C4F300149C40144325
:103B30004460C26817408A68B2403A43C2604A682B
:103B400012F0805FA9D0002201922C4A546C44F4F8
:103B500080445464526C02F480420192019A9C08A1
:103B6000A61C244A52F8267003F0030296000F2286
:103B7000B24027EA0207224A90423FF45AAF02F5C8
:103B80008062904222D002F58062904220D002F5FD
:103B9000806290421ED002F5806290421CD002F5F5
:103BA000806290421AD002F58062904218D002F5ED
:103BB0008062904216D002F58062904214D002F5E5
:103BC000806290423FF433AF0A2233E7012231E7AB
:103BD00002222FE703222DE704222BE7052229E703
:103BE000062227E7072225E7082223E702B0F0BCD8
:103BF0007047704700380140003C014000380240E7
:103C0000000002400369194201D0012070470020E2
:103C100070470AB181617047090481617047436947
:103C2000594041617047000008B5054B5B6903428C
:103C300000D108BD024B5861FCF72EFBF9E700BF2D
:103C4000003C01402DE9F04383B007460C46D0F814
:103C50000080C1EBC10300EB8303DE6C1A6DB61A62
:103C60001B6C9E4200D91E4606F103094FEA9909D2
:103C700015E006F103094FEA9909C4EBC40507EB07
:103C80008505696C3B7C0093B3B2E2B2404601F01B
:103C9000E7FD6B6C33446B642B6D33442B654146FD
:103CA00008EB441303F510639B699BB24B4512D993
:103CB000C4EBC40307EB83031A6DDB6C9A420AD290
:103CC0004BB19E1AC4EBC40307EB83031B6C9E42EB
:103CD000CFD91E46CDE73EB90123A340D1F83448E1
:103CE00024EA0304C1F83448002003B0BDE8F0839F
:103CF00000286BD0F0B58BB00446032380F8B933AD
:103D0000FEF714FB206801F021FB254655F8107BD7
:103D10006E460FCD0FC60FCD0FC695E8030086E89F
:103D20000300231D0ECB384601F0CCFA0021206899
:103D300001F012FB002210E0C2EBC20304EB83038C
:103D4000012183F8391083F83820DA87002183F8BD
:103D50003B1019645964D96401320E2AECD900224F
:103D600018E0C2EBC20304EB8303002183F8F911CE
:103D700083F8F821DA8783F8FB11C3F80012C3F83F
:103D80000412C3F80C12236802F1400003EB800315
:103D9000596001320E2AE4D9254655F8107B6E464B
:103DA0000FCD0FC60FCD0FC695E8030086E80300C0
:103DB000231D0ECB384601F013FB012384F8B933E1
:103DC000206801F028FF00200BB0F0BD01207047F3
:103DD00090F8B833012B0ED010B50446012380F8BB
:103DE000B833006801F00BFF206801F0A9FA002049
:103DF00084F8B80310BD0220704700002DE9F84F89
:103E000004460668304601F041FF08B1BDE8F88F6E
:103E10000746206801F00BFF0028F7D0206801F06A
:103E200006FF10F0020F04D02268536903F002036A
:103E30005361206801F0FBFE10F4002574D1206866
:103E400001F0F5FE10F4802F40F0D280206801F0E0
:103E5000EEFE0028C0F23E81206801F0E8FE10F47A
:103E6000006F0AD0D6F8083813F0010F40F04181F6
:103E70002268536903F400635361206801F0D7FEA0
:103E800010F4805F40F03981206801F0D0FE10F41A
:103E9000005F40F08281206801F0C9FE10F0100F31
:103EA00014D02268936923F010039361376A07F0F6
:103EB0000F08C7F34343022B00F00382062B00F0E8
:103EC0001F822268936943F010039361206801F018
:103ED000AEFE10F0080F40F02582206801F0A7FE2A
:103EE00010F4801F40F02782206801F0A0FE10F43B
:103EF000001F40F02A82206801F099FE10F0804FE8
:103F000040F02D82206801F092FE10F0040F3FF483
:103F10007DAF23685D6815F0040F40F029822268A8
:103F200053682B43536071E7206801F084FE80469C
:103F30003D4621E0C5EBC50204EB8202D2F8001237
:103F40001B69C3F31203C91AC2F81012D2F8001287
:103F5000D2F804320B44C2F8043228E019F0080FFA
:103F60003DD119F0100F04D006EB45131022C3F811
:103F7000082B01354FEA5808B8F1000F3FF45FAF46
:103F800018F0010FF5D05FFA85FA5146206801F06C
:103F900062FE814610F0010FE0D006EB45130122CE
:103FA000C3F8082B03F530632269012AC2D05146B9
:103FB0002046FEF7F7F92369012BCFD1002DCDD193
:103FC000C5EBC50304EB8303D3F80C32002BC5D13A
:103FD00004F56F720121206801F078FEBEE72046EB
:103FE000FEF7D8F906EB45130822C3F8082BB8E70B
:103FF000206801F028FE80463D462EE0C5EBC50353
:1040000004EB8303196C5A6C0A445A6446E019F0B5
:10401000080F04D006EB45130822C3F8082919F04D
:10402000100F04D006EB45131022C3F8082919F02D
:10403000400F04D006EB45134022C3F8082919F0BD
:10404000020F04D006EB45130222C3F8082919F029
:10405000800F3AD101354FEA5808B8F1000F3FF40C
:10406000F5AE18F0010FF5D05FFA85FA51462068D9
:1040700001F0FAFD814610F0010FC8D0012202FACA
:1040800005F0D6F8343823EA0003C6F8343806EBD6
:104090004513C3F8082923699342AFD051462046FF
:1040A000FEF78CF92369012BB1D1002DAFD1C5EBFF
:1040B000C50304EB8303DB6C002BA8D104F56F72FE
:1040C0000121206801F002FEA1E729462046FFF702
:1040D000B9FDBFE7D6F8043823F00103C6F8043869
:1040E0002046FEF7A5F92268536903F000435361A7
:1040F000B2E62046FEF784F9BAE6B14606F5006856
:10410000D8F8043023F00103C8F8043010212068E7
:1041100001F038F907E009EB4713FF22C3F808293B
:10412000C3F8082B01376368BB42F4D84FF0FF3364
:10413000C8F81830D8F81C3043F00113C8F81C3008
:10414000236BEBB1D8F8843043F00B03C8F884300C
:10415000D8F8443043F00B03C8F84430D6F80038A0
:1041600023F4FE63C6F8003804F56F72217C2068E2
:1041700001F0ACFD2268536903F48053536183E678
:10418000D8F8143043F00B03C8F81430D8F81030C6
:1041900043F00B03C8F81030E0E7206801F07AFD27
:1041A0002268D36823F47053D360206801F0C4F907
:1041B00090B90023E3604FF4007363612268D36811
:1041C00043F41053D3602046FEF709F9226853697F
:1041D00003F4005353615EE60323E360402363610D
:1041E00000F00AFD644B0344644A934205D82268F8
:1041F000D36843F47053D360E5E7614B0344614AED
:10420000934205D82268D36843F46053D360DAE759
:10421000A0F57403A3F510535B4A934205D82268B6
:10422000D36843F45053D360CDE7A0F18373A3F573
:10423000E743564A934205D22268D36843F4405379
:10424000D360C0E7524B0344524A934205D82268D8
:10425000D36843F43053D360B5E74F4B03444F4A20
:10426000934205D22268D36843F42053D360AAE76F
:104270004B4B03444B4A934205D22268D36843F424
:104280001053D3609FE7A0F1B773A3F55853464A84
:10429000934205D22268D36843F40053D36092E777
:1042A000424B0344424A934205D22268D36843F406
:1042B000E053D36087E72268D36843F4C053D360E8
:1042C00081E747F6F0731F423FF4FBAD4FEA171B3F
:1042D000C8EBC80904EB8909C7F30A12D9F804121C
:1042E000304601F003FCCBF30A02D9F80432134440
:1042F000C9F80432D9F810321A44C9F81022E0E59E
:10430000082204F56F71304601F0F0FBC7F30A177D
:10431000C8EBC80204EB8202D2F810321F44C2F884
:104320001072CEE52046FEF754F82268536903F078
:1043300008035361D1E5E9B22046FEF785F822680B
:10434000536903F480135361CEE5E9B22046FEF7CA
:1043500075F82268536903F400135361CBE52046D6
:10436000FEF778F82268536903F080435361C9E58A
:104370002046FEF775F8D2E5405327FFFF340C00C6
:10438000401E1BFF3F420F007F4F120020D613003C
:1043900060B6E5FE5FE3160000D3CEFE40771B005B
:1043A000C05BB3FEC091210020753800E05459FE77
:1043B000E09C410090F8B833012B0BD010B50446B7
:1043C000012380F8B833006801F009FC002084F86C
:1043D000B80310BD0220704770B5054608464EB2BE
:1043E000002E20DB01F07F04C4EBC404A40004F51C
:1043F000FC74291900F07F000870F60F4E708A6077
:10440000CB7006B1C880022B15D095F8B833012BBC
:1044100014D0012385F8B833286801F0ADF80020E6
:1044200085F8B80370BD01F07F04C4EBC404A40098
:1044300038342919DEE700230B71E6E70220F1E7A3
:1044400010B504460A4648B200281ADB01F07F0383
:10445000C3EBC3039B0003F5FC73E11802F07F027A
:104460000A70C00F487094F8B833012B11D00123A3
:1044700084F8B833206801F0C9F8002084F8B80344
:1044800010BD01F07F03C3EBC3039B003833E11879
:10449000E4E70220F4E738B501F07F04C4EBC4017F
:1044A000890001F5FC710144C4EBC40500EB8505EE
:1044B000C5F80422C5F80C320023C5F8103285F87F
:1044C000F93185F8F8410369012B06D064B9DAB2F5
:1044D000006801F015F9002038BDC4EBC40500EBFD
:1044E0008505C5F80822F1E7DAB2006801F0CCF9D9
:1044F000F1E701F00F01C1EBC10100EB8101B1F85F
:104500001002704738B501F07F04C4EBC401890084
:1045100038310144C4EBC40500EB85056A64EB64E3
:1045200000232B65012385F8393085F8384003696D
:10453000012B06D05CB9DAB2006801F0E1F8002086
:1045400038BDC4EBC40500EB8505AA64F2E7DAB216
:10455000006801F099F9F2E738B504460A4648B216
:1045600000281BDBC1EBC1039B0003F5FC73E118C2
:1045700001238B7002F07F050D70C00F487094F816
:10458000B833012B19D0012384F8B833206801F027
:10459000BFFA5DB1002084F8B80338BD01F07F0395
:1045A000C3EBC3039B003833E118E1E704F56F72F6
:1045B000217C206801F08AFBECE70220EDE710B5D2
:1045C00004460A4648B200281ADBC1EBC1039B002F
:1045D00003F5FC73E11800238B7002F07F020A7070
:1045E000C00F487094F8B833012B11D0012384F820
:1045F000B833206801F0BEFA002084F8B80310BD7B
:1046000001F07F03C3EBC3039B003833E118E2E7FB
:104610000220F4E730B40468606A19B940EA024045
:10462000A06218E00D46A36A00EB13400023691E48
:104630008B4209DA03F1400104EB8101496800EB88
:1046400011400133DBB2F2E740EA024005F13F01DD
:1046500004EB81014860002030BC70470368596258
:1046600000207047002800F0B98170B582B0044680
:10467000036813F0010F3BD0A64B9B6803F00C03BB
:10468000042B2CD0A34B9B6803F00C03082B21D0E8
:104690006368B3F5803F4FD0B3F5A02F52D09D4B48
:1046A0001A6822F480321A601A6822F480221A6092
:1046B0006368002B50D0FEF751FD0546954B1B68F3
:1046C00013F4003F14D1FEF749FD401B6428F5D9CF
:1046D00003208AE18F4B5B6813F4800FD8D08D4B99
:1046E0001B6813F4003F03D06368002B00F078814F
:1046F000236813F0020F54D0864B9B6813F00C0F05
:104700003ED0844B9B6803F00C03082B33D0E36846
:10471000002B67D0804B01221A60FEF71FFD054673
:104720007C4B1B6813F0020F53D1FEF717FD401BA3
:104730000228F5D9032058E1764A136843F4803300
:104740001360B5E7734B1A6842F480221A601A6846
:1047500042F480321A60ABE7FEF700FD05466D4B70
:104760001B6813F4003FC3D0FEF7F8FC401B64281D
:10477000F5D9032039E1674B5B6813F4800FC6D18C
:10478000644B1B6813F0020F03D0E368012B40F069
:104790002981604A136823F0F803216943EAC103C1
:1047A0001360236813F0080F40D0636963B35B4B59
:1047B00001221A60FEF7D2FC0546564B5B6F13F0E0
:1047C000020F33D1FEF7CAFC401B0228F5D90320A3
:1047D0000BE1504A136823F0F803216943EAC1034F
:1047E0001360DEE74C4B00221A60FEF7B7FC05466B
:1047F000484B1B6813F0020FD3D0FEF7AFFC401BF1
:104800000228F5D90320F0E0444B00221A60FEF79D
:10481000A5FC05463F4B5B6F13F0020F06D0FEF779
:104820009DFC401B0228F5D90320DEE0236813F02D
:10483000040F78D0374B1B6C13F0805F0DD1002331
:104840000193344B1A6C42F080521A641B6C03F0D3
:1048500080530193019B012500E00025304B1B682C
:1048600013F4807F21D0A368012B32D0052B36D0E2
:10487000284B1A6F22F001021A671A6F22F0040205
:104880001A67A368002B34D0FEF768FC0646214B5C
:104890001B6F13F0020F45D1FEF760FC801B41F245
:1048A00088339842F3D903209FE01D4A136843F4EC
:1048B00080731360FEF752FC0646194B1B6813F415
:1048C000807FD0D1FEF74AFC801B0228F5D9032057
:1048D0008BE0104A136F43F001031367D1E70D4BD0
:1048E0001A6F42F004021A671A6F42F001021A6747
:1048F000C7E7FEF733FC0646064B1B6F13F0020FAB
:1049000010D0FEF72BFC801B41F288339842F3D97C
:1049100003206AE00038024000004742800E474210
:1049200000700040E5B9A369002B5DD0314A926860
:1049300002F00C02082A5AD0022B17D02E4B00226C
:104940001A60FEF70BFC04462A4B1B6813F0007F2D
:1049500042D0FEF703FC001B0228F5D9032044E0F7
:10496000244A136C23F080531364DCE7224B0022AB
:104970001A60FEF7F3FB05461E4B1B6813F0007F21
:1049800006D0FEF7EBFB401B0228F5D903202CE0F4
:10499000E369226A1343626A43EA8213A26A5208F5
:1049A000013A43EA0243E26A43EA0263114A53606E
:1049B000114B01221A60FEF7D1FB04460D4B1B6818
:1049C00013F0007F06D1FEF7C9FB001B0228F5D9C2
:1049D00003200AE0002008E0002006E001207047E4
:1049E000012002E0012000E0002002B070BD0120A3
:1049F000FBE700BF0038024060004742F8B5244B97
:104A00009B6803F00C03042B3DD0082B3DD1204BB9
:104A10005A6802F03F025B6813F4800F12D01C4BFF
:104A20005968C1F3881100231A48A1FB000101F065
:104A3000ABFB174B5B68C3F3014301335B00B0FB77
:104A4000F3F023E0124B5B68C3F388135C0100258D
:104A5000E41A65F10005AE0146EA9466A701381B29
:104A600066EB0501CC0044EA5074C500E81844F137
:104A700000018B0243EA905384022046194600232A
:104A800001F082FBD5E7034800E00348F8BD00BF12
:104A900000380240001BB7000024F400002800F09A
:104AA0009A8070B50D4604464F4B1B6803F00F0308
:104AB0008B4208D2CBB24C4A1370136803F00F0339
:104AC0008B4240F08A80236813F0020F17D013F056
:104AD000040F04D0454A936843F4E053936023687D
:104AE00013F0080F04D0414A936843F46043936085
:104AF0003E4A936823F0F003A1680B439360236858
:104B000013F0010F32D06368012B21D09A1E012AC5
:104B100025D9364A126812F0020F60D033498A68EC
:104B200022F0030213438B60FEF718FB06462F4B5F
:104B30009B6803F00C036268B3EB820F16D0FEF79C
:104B40000DFB801B41F288339842F0D9032041E0ED
:104B5000264A126812F4003FE0D101203AE0234ACD
:104B6000126812F0007FD9D1012033E01E4B1B6880
:104B700003F00F03AB4207D9EAB21B4B1A701B6854
:104B800003F00F03AB422CD1236813F0040F06D0BF
:104B9000164A936823F4E053E1680B43936023685B
:104BA00013F0080F07D0114A936823F4604321697A
:104BB00043EAC1039360FFF721FF0C4B9B68C3F3EB
:104BC00003130B4AD35CD8400A4B18600020FDF752
:104BD0002DFA002070BD012070470120FAE7012066
:104BE000F8E70120F6E700BF003C02400038024031
:104BF000907900084C000020014B1868704700BFF6
:104C00004C00002008B5FFF7F7FF044B9B68C3F387
:104C10008223034AD35CD84008BD00BF003802405D
:104C2000A07900080F2303600B4B9A6802F003027F
:104C300042609A6802F0F00282609A6802F4E052E0
:104C4000C2609B68DB0803F4E0530361034B1B68FD
:104C500003F00F030B60704700380240003C024035
:104C60000268D36843F00103D3600268136843F01D
:104C7000010313600020704770477047704770470A
:104C800010B5044603681A6912F0020F11D0DA68F1
:104C900012F0020F0DD06FF002021A6101230376A9
:104CA00003689B6913F0030F70D0FFF7E6FF002342
:104CB000237623681A6912F0040F12D0DA6812F012
:104CC000040F0ED06FF004021A61022323762368CA
:104CD0009B6913F4407F5FD02046FFF7CEFF00238F
:104CE000237623681A6912F0080F12D0DA6812F0DE
:104CF000080F0ED06FF008021A6104232376236890
:104D0000DB6913F0030F4ED02046FFF7B6FF0023F8
:104D1000237623681A6912F0100F12D0DA6812F0A5
:104D2000100F0ED06FF010021A610823237623684B
:104D3000DB6913F4407F3DD02046FFF79EFF002340
:104D4000237623681A6912F0010F03D0DA6812F093
:104D5000010F36D123681A6912F0800F03D0DA6888
:104D600012F0800F34D123681A6912F0400F03D07B
:104D7000DA6812F0400F32D123681A6912F0200F5E
:104D800003D0DA6812F0200F30D110BDFFF774FFA6
:104D90002046FFF773FF8AE72046FFF76DFF2046A6
:104DA000FFF76CFF9BE72046FFF766FF2046FFF703
:104DB00065FFACE72046FFF75FFF2046FFF75EFF89
:104DC000BDE76FF001021A612046FDF761F8C1E707
:104DD0006FF080021A61204600F08BF8C3E76FF095
:104DE00040021A612046FFF74AFFC5E76FF0200234
:104DF0001A61204600F07CF8C7E7000003682E4ADD
:104E0000904212D0B0F1804F0FD0A2F57C42904278
:104E10000BD002F58062904207D002F5806290428A
:104E200003D002F57842904203D123F070034A6820
:104E30001343214A90422AD0B0F1804F27D0A2F5E7
:104E40007C42904223D002F5806290421FD002F54E
:104E5000806290421BD002F57842904217D002F552
:104E60007052904213D002F5806290420FD002F54A
:104E7000806290420BD0A2F59832904207D002F5A2
:104E80008062904203D002F58062904203D123F405
:104E90004073CA68134303608B68C3620B68836204
:104EA000054B984203D003F58063984201D10B690A
:104EB000036301234361704700000140B0B110B5A6
:104EC000044690F8393063B1022384F83930214622
:104ED00051F8040BFFF792FF012384F839300020CA
:104EE00010BD80F83830FDF7A5F9EDE701207047D7
:104EF000704770470268D36823F0C003D360202353
:104F000080F8393070470268D36823F49073D36017
:104F10000268536923F001035361202380F83A307B
:104F2000704790F83930DBB2212B01D00220704756
:104F30008368B3F5805F17D0036A5A1C02621A783F
:104F400003685A60C38C9BB2013B9BB2C3844BB9CC
:104F50000268D36823F08003D3600268D36843F00B
:104F60004003D36000207047036A1B880268C3F3C4
:104F70000803536003691BB9036A02330362E1E764
:104F8000036A01330362DDE738B590F83930DBB2EC
:104F9000202B31D10446002930D0002A30D090F89F
:104FA0003830012B2ED0012380F838300162828402
:104FB000C2840025C563212380F83930036B124871
:104FC000D863236B11481864236B1148D864236B92
:104FD0001D6520681346021D206BFEF7E5FB236864
:104FE0006FF040021A6084F838502268536943F029
:104FF00080035361284600E0022038BD0120FCE711
:105000000120FAE70220F8E7155000086150000877
:105010000151000808B50346806B1B681B6813F438
:10502000807F0CD10023C3840268536923F080037E
:1050300053610268D36843F04003D36008BDFBF7B7
:10504000B3FAFBE708B50168CA6822F04002CA60FB
:10505000202280F83920FBF7A7FA002008BD70470E
:1050600008B5806BFFF7FBFF08BD08B590F83A3034
:10507000DBB2222B41D18368B3F5805F0FD0036987
:105080000BBB03685A68836A591C81621A70C38D0E
:105090009BB2013B9BB2C385F3B1002008BD826A7D
:1050A000036943B903685B68C3F308031380836A29
:1050B00002338362EBE703685B68DBB21380836AC9
:1050C00001338362E3E703685B68826A511C816293
:1050D00003F07F031370DAE70268D36823F4907358
:1050E000D3600268536923F001035361202380F8E1
:1050F0003A30FBF73FFA0020D0E70220CEE77047B6
:1051000010B5846B23685A6994F83930DBB2212BCF
:1051100010D023685A6902F0400294F83A30DBB2AA
:10512000222B11D0E36B43F01003E3632046FFF71B
:10513000E6FF10BD02F08002002AEAD00023E384DB
:105140002046FFF7D7FEE4E7002AEBD00023E385F3
:105150002046FFF7D8FEE5E710B50446026813685D
:10516000D168526913F00F0005D113F0200F02D05F
:1051700011F0200F13D128B112F0010213D111F454
:10518000907F10D113F0800F02D011F0800F69D101
:1051900013F0400F02D011F0400F67D110BD204630
:1051A000FFF763FFFAE713F0010F06D011F4807FD9
:1051B00003D0E06B40F00100E06313F0040F04D073
:1051C0001AB1E06B40F00200E06313F0020F04D06C
:1051D0001AB1E06B40F00400E06313F0080F04D054
:1051E0001AB1E26B42F00802E263E26B002AD5D00A
:1051F00013F0200F02D011F0200F21D123685B693A
:1052000003F04003E26B12F0080F00D123B32046F5
:10521000FFF779FE23685A6912F0400F18D05A69D7
:1052200022F040025A61636B73B1124A1A65606BD7
:10523000FEF7F4FA0028B1D0606B036D9847ADE734
:105240002046FFF712FFD9E72046FFF758FFA5E7F2
:105250002046FFF754FFA1E72046FFF750FF002349
:10526000E3639BE72046FFF75CFE97E72046FFF7E6
:10527000E9FE93E77952000808B5806B0023C385E7
:10528000C384FFF73CFF08BD002301330C4A93425F
:1052900011D80269002AF8DA036943F001030361B7
:1052A00000230133064A934207D8026912F0010F26
:1052B000F7D100207047032070470320704700BFDC
:1052C000400D030084B010B5044603A880E80E002A
:1052D000089B012B20D1A36B23F48033A363E368E5
:1052E00023F4840323F04003E360E36823F44013D2
:1052F000E3600F9B012B0AD02046FFF7C5FF069BFA
:10530000012B14D00020BDE8104004B07047E368C2
:1053100043F48013E360EFE7E36843F04003E360A6
:105320002046FFF7B1FF4FF48033A363E7E7A3689C
:1053300043F00603A360A36843F02003A360E1E702
:10534000836843F00103836000207047836823F083
:10535000010383600020704708B5C36823F0C04391
:10536000C360012905D041B9C36843F08043C360DD
:1053700003E0C36843F00053C3603220FDF7F4FE3E
:10538000002008BD890141F02001016100230133A3
:10539000054A934205D8026912F0200FF7D1002088
:1053A00070470320704700BF400D030010230361C6
:1053B00000230133054A934205D8026912F0100F09
:1053C000F7D1002070470320704700BF400D030055
:1053D000D0F800381943C0F80018002070470000CA
:1053E00084B02DE97841044607A880E80E00DDF876
:1053F0004480B8F1000F17D1A36B43F40013A363EB
:1054000025460023C4F8003E04F50066D4F80038B1
:10541000C4F800380C9B012B10D1099B4BB900211B
:105420002046FFF7D5FF0DE0A36B43F40023A363F1
:10543000E6E701212046FFF7CBFF03E003212046EA
:10544000FFF7C6FF10212046FFF79CFF2046FFF71D
:10545000ADFF0023336173614FF0FF32B261F3613E
:1054600008E04FF09040C2F8000900220A61FF22D4
:105470008A600133079999420BD905EB431202F573
:105480001061D2F800090028EBDB0020C2F8000907
:10549000EBE7002308E04FF0904CC2F800CB00226D
:1054A0000261FF228260013399420DD905EB43125C
:1054B00002F53060D2F800CBBCF1000FEBDB4FF00F
:1054C000000CC2F800CBEAE7336923F48073336140
:1054D0000A9B012B1BD00022A2616FF08042626107
:1054E0001BB9A36943F01003A361A269104B1343D6
:1054F000A3610D9B1BB1A36943F00803A361B8F13D
:10550000010F0ED00020BDE8784104B07047094A71
:105510003263326B42F4803242F003023263326B08
:10552000D9E7A36943F0804343F00403A361E9E7AB
:1055300000383C8000018000D0F8083800F5006099
:1055400013F0060F10D0836803F00603022B0DD072
:10555000836803F00603062B0AD0836803F0060372
:10556000042B07D0002070470020704703207047AD
:10557000032070470220704730B44B78012B22D0B3
:10558000D0F81C380D780122AA4043EA0243C0F843
:105590001C380B7800EB4310D0F8003B13F4004F9D
:1055A0000ED1D0F8003B8A68C2F30A02C97842EAF9
:1055B0008142134343F0805343F40043C0F8003B5F
:1055C000002030BC7047D0F81C280D78AB409BB24F
:1055D0001343C0F81C380C7800EB4410D0F80039A5
:1055E00013F4004FECD1D0F800398A68C2F30A02F4
:1055F000C97842EA814242EA8452134343F080531D
:1056000043F40043C0F80039DAE7000038B5054636
:105610000C464B78012B36D00B78014600EB431338
:10562000D3F8002B22F40042C3F8002B237800EBC0
:1056300043134FF00062C3F8002B237800EB4313B1
:105640004FF08042C3F8002B002201322B4B9A42CC
:1056500051D8237801EB431303F530639B6813F0B3
:10566000100FF2D1D5F8043843F48063C5F804383C
:10567000D5F81C38217801228A4023EA0243C5F874
:105680001C38002038BD0B78014600EB4313D3F8DB
:10569000002922F40042C3F80029237800EB4313C9
:1056A0004FF00062C3F80029237800EB43134FF05A
:1056B0008042C3F8002900220132104B9A4218D8C8
:1056C000237801EB431303F510639B6813F0804FBD
:1056D000F2D110212846FFF755FED5F81C28217875
:1056E00001238B409BB222EA0303C5F81C3800203B
:1056F000C8E70320C6E70320C4E700BF400D03004E
:1057000030B44B78012B39D00B7800EB4313D3F82E
:10571000104BE40CE404C3F8104B0B7800EB43137C
:10572000D3F8104B24F0FF5424F4C014C3F8104BEA
:105730004B690BB18B684B610B7800EB4313D3F8CB
:10574000104B44F40024C3F8104B0B7800EB4313C8
:10575000D3F8104B8D68C5F312052C43C3F8104BDA
:10576000012A76D00B7800EB4310D0F8003B43F0D1
:105770000443C0F8003B002030BC70474B699BBB22
:105780000B7800EB4313D3F8104924F0FF5424F4B2
:10579000C014C3F810490B7800EB4313D3F8104939
:1057A00044F40024C3F810490B7800EB4313D3F8FA
:1057B0001049E40CE404C3F810490B7800EB4313E0
:1057C000D3F8004944F00444C3F80049012A39D011
:1057D0004B69002BCFD0D0F83438097801228A40A9
:1057E0001343C0F83438C6E70B7800EB4313D3F803
:1057F0001049E40CE404C3F810490B7800EB4313A0
:10580000D3F8104924F0FF5424F4C014C3F810490D
:105810004C698B689C4200D94B610B7800EB4313B9
:10582000D3F8104944F40024C3F810490B7800EB76
:105830004313D3F810494D69C5F312052C43C3F83F
:105840001049BAE70B7800EB43100B69C0F8143924
:1058500091E7CA680B7800EB4313C3F8142B81E778
:1058600070B49DF80C4064B903339D08AC4208D273
:1058700000EB023303F5805351F8046B1E600134D2
:10588000F4E7002070BC704770B582B04B78012BF4
:105890003ED00B7800EB4313D3F8104BE40CE40438
:1058A000C3F8104B0B7800EB4313D3F8104B24F0E4
:1058B000FF5424F4C014C3F8104B4B69002B40F084
:1058C000D3800B7800EB4313D3F8104B8D68C5F3EE
:1058D00012052C43C3F8104B0B7800EB4313D3F89D
:1058E000104B44F40024C3F8104B012A00F0DB8075
:1058F000CB78012B00F0DE800B7800EB4310D0F862
:10590000003B43F00443C0F8003B002002B070BDF0
:105910004B696BBB0B7800EB4313D3F8104924F0B1
:10592000FF5424F4C014C3F810490B7800EB431360
:10593000D3F8104944F40024C3F810490B7800EB65
:105940004313D3F81049E40CE404C3F81049012AC6
:1059500054D0CB78012B57D04B69002B54D0D0F8C2
:1059600034380E780124B4402343C0F834384BE077
:105970000B7800EB4313D3F81049E40CE404C3F8AC
:1059800010490B7800EB4313D3F8104924F0FF546F
:1059900024F4C014C3F810490C7800EB4414D4F874
:1059A00010594B698E683344013BB3FBF6F34E4EFE
:1059B00006EAC3432B43C4F810390B7800EB4313BA
:1059C000D3F810494D69C5F312052C43C3F81049AB
:1059D000CB78012BBBD10B7800EB4313D3F81049E4
:1059E00024F0C044C3F810490B7800EB4313D3F8FC
:1059F000104944F00054C3F81049A8E70B7800EBB5
:105A000043130C69C3F81449CB78012B13D00B78DE
:105A100000EB4313D3F8004944F00444C3F80049B1
:105A2000CB78012B7FF471AF00928B8A0A78C9681A
:105A3000FFF716FF69E7D0F8083813F4807F09D123
:105A40000B7800EB4313D3F8004944F00054C3F83B
:105A50000049DCE70B7800EB4313D3F8004944F02E
:105A60008054C3F80049D2E78C682344013BB3FB60
:105A7000F4F30C7800EB4414D4F8105B1A4E06EAE9
:105A8000C3463543C4F8105B0C7800EB4414D4F8DB
:105A9000106B8D689BB205FB03F3C3F31203334312
:105AA000C4F8103B21E7CA680B7800EB4313C3F836
:105AB000142B1DE7D0F8083813F4807F09D10B7838
:105AC00000EB4313D3F8002B42F00052C3F8002B35
:105AD00012E70B7800EB4313D3F8002B42F080520F
