:020000040800F2
:1000000000000320B9700008C1320008C5320008A2
:10001000D9320008DB320008DD32000800000000A1
:10002000000000000000000000000000612800083F
:10003000DF3200080000000001290008E13200085A
:1000400009710008097100080971000809710008A8
:100050000971000809710008097100080971000898
:10006000813300080971000809710008097100084E
:10007000E932000809710008F93200080971000826
:1000800009710008097100080971000809330008A6
:100090001933000809710008097100080971000886
:1000A0000971000809710008097100080971000848
:1000B0002933000809710008097100080971000856
:1000C0000971000809710008097100080971000828
:1000D000097100083933000809710008513300081C
:1000E00075330008097100080971000809710008DA
:1000F00009710008097100080971000809710008F8
:1001000009710008097100086533000809710008C9
:1001100009710008097100080971000809710008D7
:10012000097100088D330008097100080971000881
:100130000971000809710008097100089D33000861
:10014000AD3300080971000809710008BD330008CB
:10015000CD330008DD33000809710008ED330008D5
:100160000971000809710008097100080971000887
:1001700009710008097100080971000800000000F9
:100180000971000809710008097100080971000867
:100190000971000809710008097100080971000857
:1001A00000000000000000000971000810B5054CB7
:1001B000237833B9044B13B10448AFF30080012313
:1001C000237010BD8C04002000000000F89500088A
:1001D00008B5034B1BB103490348AFF3008008BDCA
:1001E0000000000090040020F895000808B551ECCC
:1001F000100B00220A4B07F0A3FB0022094B07F06B
:10020000E9F941EC100B06F081FF51EC100B07F0FF
:10021000A9FD80B2044B1B681864D86308BD00BFF9
:100220000000244000408F40A416022010B582B088
:1002300001F081FE01900E4C0C21204606F042F99F
:100240000821204606F03EF923684FF4FA6119644C
:10025000D96301A801F09CFE23684FF47A721A64F6
:10026000DA6340F2D66101A801F092FE02B010BD3F
:10027000A41602200000000000B583B001F05BFE70
:100280000190FFF7D3FF9FED040BFFF7AFFF0521B0
:1002900001A801F07DFEF6E7000000000000144018
:1002A000014B1878704700BFA804002008B500F083
:1002B000E5F808BD70B58AB00D4C05AD26460FCEE9
:1002C0000FC533682B60002105A801F03EFE094BE5
:1002D00018606D4614340FCC0FC523682B600021C5
:1002E000684601F032FE044B18600AB070BD00BFD2
:1002F000088F00086C0A0220880E022008B500232F
:100300001A4640F20341022001F0E8F9002008BD3E
:1003100010B50B46084904120C704870181288700A
:10032000CB7013120B714A7140F2FF13062203487F
:1003300000F0A6F910BD00BFAC040020E8150220B3
:10034000014B01221A707047061302202DE9F0417B
:100350000746884616460024122C13DC23010B4D59
:10036000EB5C0BB10134F7E7304601F079F922017B
:1003700005EB0413A8545E60C3F80880DF602046D4
:10038000BDE8F0814FF0FF34F9E700BF64130220AD
:1003900000B583B001F0CFFD01900022114641F27B
:1003A0008830FFF7B5FF022101A801F0F1FDF4E765
:1003B00000487047B404002008B50A4601880020B0
:1003C00001F0D4F8002008BD84B010B503AC84E877
:1003D0000E0030B101280CD00020BDE8104004B060
:1003E0007047BDF80C30082205A9064800F048F90E
:1003F000F2E7BDF80C30082205A9034800F040F9E7
:10040000EAE700BFE8150220C015022010B5044637
:10041000FFF7CEFF012101F0C3F8044800F0DDFF33
:10042000214601F0B0F8002010BD00BF708F000819
:1004300008B5002001F000F8002008BD10B5044602
:10044000B0F5806F02D0042C08D010BD084801F030
:10045000EFF80028F7D001F0BFF8F4E7FFF720FF2E
:1004600010B9FFF74BFFF0E7FFF76AFFEDE700BFBA
:10047000788F000808B503F0C5FD08BD08B501F088
:10048000DDF800F03BFF00F009FF00F063F800F03A
:10049000D9FD00F0FDFC00F0C3FD0D4800F04CFD5F
:1004A000012200210B48FFF751FF012200210A48D9
:1004B000FFF74CFF012200210848FFF747FF0848DB
:1004C00000F090FF0749084800F050F908BD00BF50
:1004D0000D040008310400088510000815110008FB
:1004E000C9030008B9030008D014022070B58CB00D
:1004F0000446EFF3108672B6051D284601F0CCFBCA
:10050000C8B1002384F8243086F310880CB070BD85
:1005100008A9284601F0A2FB089B02939DF824300D
:10052000069300230493059301AB0DF1250202A964
:10053000206803F0EFFE284601F0AEFB0028E3D16F
:10054000206803F062FF0028E2D1002384F8243001
:10055000F1E7000070B58AB0424A002382F82430E7
:1005600041491160042B0ADC03F10A0200213D48D5
:1005700040F822103D4840F822100133F2E74023B2
:1005800010223B493B4801F00FFB0126089600254D
:100590000695079600950195029503950595049596
:1005A000314C6946204603F0EDFD204603F084FE01
:1005B0000221204603F0EAFF3146204603F0E6FF21
:1005C0004FF40041204603F0E1FF4FF480712046D4
:1005D00003F0DCFF4FF48061204603F0D7FF4FF4B7
:1005E0000071204603F0D2FF4FF40061204603F073
:1005F000CDFF1E4880F824501F4C40F8044B402388
:1006000010221E4901F0D0FA0E2309930593694682
:10061000204603F0B7FD204603F04EFE022120469F
:1006200003F0B4FF3146204603F0B0FF4FF4004121
:10063000204603F0ABFF4FF48071204603F0A6FF85
:100640004FF48061204603F0A1FF4FF40071204673
:1006500003F09CFF4FF40061204603F097FF0AB0BF
:1006600070BD00BFD0140220E815022094140220AF
:10067000F8060020D4140220C0150220F80A002039
:100680002DE9F0438DB00D46164699460893334B3D
:10069000984204D0324B984204D000200DE0DFF89D
:1006A000C48001E0DFF8C08000241BE0002388F84C
:1006B000243098F824302BB320460DB0BDE8F083E9
:1006C000331B8DF824302B68CDF825306B68CDF8BE
:1006D00029309DF8240005440444A4B208A93846F2
:1006E00001F073FAB442E4D208F10407384601F08D
:1006F000D8FA0028DAD1331B072BE1DD08238DF867
:100700002430E0E708F10405284601F0C5FA002886
:10071000D2D1CDF8089000230493059311E008A9E5
:10072000284601F076FA9DF82430069301AB0DF1CE
:10073000250202A9D8F8000003F0ECFD012388F897
:100740002430D8F8000003F060FE0028B4D028461A
:1007500001F0A2FA0028E2D0AEE700BFE8150220BF
:10076000C0150220D014022094140220024600205A
:1007700004280BDC00F10A0352F823300BB10130DE
:10078000F6E700F10A0342F8231070474FF0FF30FC
:100790007047000008B5074B984203D0064B9842BB
:1007A00004D008BD0548FFF7A1FEFAE70448FFF7AB
:1007B0009DFEF6E7E8150220C0150220D0140220A5
:1007C0009414022008B5074B984203D0064B984278
:1007D00004D008BD0548FFF789FEFAE70448FFF793
:1007E00085FEF6E7E8150220C0150220D01402208D
:1007F0009414022008B5074B984203D0064B984248
:1008000004D008BD0548FFF771FEFAE70448FFF77A
:100810006DFEF6E7E8150220C0150220D014022074
:100820009414022010B50446084B984206D0084B99
:10083000984207D0204603F0ECFF10BD0548FFF7B3
:1008400055FEF7E70448FFF751FEF3E7E8150220ED
:10085000C0150220D01402209414022010B58AB0D2
:10086000044601AB03AA002103F0ECFD134B9C42AC
:1008700012D0134B9C421FD00AB010BD0134042C7F
:10088000FADC04F10A030F4A52F82330002BF5D0AA
:1008900001A903A89847F1E70024F0E70134042CEC
:1008A000EADC04F10A03084A52F82330002BF5D0A1
:1008B00001A903A89847F1E70024F0E7E815022012
:1008C000C0150220D0140220941402202DE9F04318
:1008D00083B004460E46144F00224021384604F0EF
:1008E00094FA04F07F04114D2C70DFF84880104C0E
:1008F0004FF03709CDF800900123424629462046A3
:1009000005F027FA2E70CDF80090012342462946C3
:10091000204605F01EFA01224021384604F075FAFF
:10092000002003B0BDE8F083001402402F0F002028
:10093000101602202E0F002038B505460C46002167
:100940002A20FFF7C3FF022003F062FB294629207B
:10095000FFF7BCFF022003F05BFB21466420FFF79A
:10096000B5FF022003F054FB81212A20FFF7AEFFE0
:100970000A2003F04DFB38BD70B504460E461546FF
:1009800001462820FFF7A2FF022003F041FB0A21C5
:100990002920FFF79BFF022003F03AFB012164208E
:1009A000FFF794FF022003F033FB44F08001252081
:1009B000FFF78CFF022003F02BFB31462620FFF7C8
:1009C00085FF022003F024FB03213420FFF77EFF84
:1009D000022003F01DFB03216720FFF777FF0220B1
:1009E00003F016FB81212A20FFF770FF062003F099
:1009F0000FFB45F080012720FFF768FF022003F07E
:100A000007FB70BD2DE9F04182B00446134E002271
:100A10004021304604F0F9F9114D64F07F042C7048
:100A2000104C114F4FF03708CDF8008001232246BB
:100A30002946384605F08DF9CDF80080012322467D
:100A40002946384605F085F901224021304604F058
:100A5000DCF9207802B0BDE8F08100BF001402404C
:100A60002F0F00202E0F00201016022010B5014677
:100A70003220FFF72BFF0A2003F0CAFA802134202E
:100A8000FFF724FF0A2003F0C3FA3520FFF7BAFF6F
:100A9000044600213420FFF719FF0A2003F0B8FABA
:100AA000204610BD2DE9F04383B004460D4616469E
:100AB000144F00224021384604F0A7F944F080008A
:100AC00011490870DFF84C8088F800000F4C4FF097
:100AD0003709CDF8009001230D4A204605F039F979
:100AE000CDF8009033462A464146204605F031F9BC
:100AF00001224021384604F088F9002003B0BDE807
:100B0000F08300BF001402402F0F002010160220B7
:100B10002E0F0020300F002038B50025B5F5967F48
:100B200020DA1F4C0E2221463B20FFF7BBFF237A21
:100B3000627A42EA03221B4B598B0A445A83A17AF8
:100B4000E27A42EA0122998B0A449A83217B627BF2
:100B500042EA0122D98B0A44DA83022003F058FAD0
:100B60000135DBE70F4BB3F91A200F4981FB024037
:100B7000D217C2EB60125A83B3F91C2081FB0240EA
:100B8000D217C2EB60129A83B3F91E2081FB0201D7
:100B9000D217C2EB6112DA83044B00221A7038BDFF
:100BA000F80E0020080F0020B5814E1B0000002029
:100BB00038B50025B5F5967F23DA214C0E22214663
:100BC0003B20FFF76FFF2278637843EA02231D4A38
:100BD000918A0B449382A178E37843EA0123D18A76
:100BE0000B44D38221796379A3F5805343EA01232F
:100BF000118B11FA83F31383022003F009FA0135F4
:100C0000D8E7104BB3F914200F4981FB0240D217EB
:100C1000C2EB60129A82B3F9162081FB0240D21710
:100C2000C2EB6012DA82B3F9182081FB0201D217FD
:100C3000C2EB61121A83054B00225A7038BD00BF07
:100C4000F80E0020080F0020B5814E1B0000002088
:100C500010B530216A20FFF739FE0A2003F0D8F9D9
:100C60000D212420FFF732FE0A2003F0D1F90E21D6
:100C70002820FFF72BFE0A2003F0CAF98E2131202D
:100C8000FFF724FE0A2003F0C3F901210B20FFF730
:100C900053FE0A2003F0BCF90020FFF7E7FE1028FE
:100CA00002D00124204610BD01210B20FFF744FE95
:100CB0000A2003F0ADF900210A20FFF73DFE0A20CB
:100CC000FFF7D4FE002841D10A2003F0A1F900214A
:100CD0000B20FFF731FE0B20FFF7C8FE0446B8BB20
:100CE0000A2003F095F924214120FFF725FE412039
:100CF000FFF7BCFE242801D00424D3E70A2003F028
:100D000087F9C0214220FFF717FE4220FFF7AEFE11
:100D1000C02801D00524C5E70A2003F079F9002195
:100D20002A20FFF7D3FD0A2003F072F900213420B6
:100D3000FFF7CCFD0A2003F06BF9062203210E20F9
:100D4000FFF71AFE642003F063F9ABE70224A9E77A
:100D50000324A7E708B5014606224920FFF7A2FEB3
:100D600008BD000030B585B0002403E0022003F088
:100D70004FF9013441F287339C424DDC424D05F17D
:100D80000C00FFF7E7FFB5F90C2082EAE273A3EB52
:100D9000E2739BB2B3F5C87FE8D2B5F90E1081EAD1
:100DA000E173A3EBE1739BB2B3F5C87FDED2B5F973
:100DB000100080EAE073A3EBE0739BB2B3F5C87F49
:100DC000D4D2BDF908309342B8BF1346ADF808300D
:100DD000BDF900309A42A8BF1A46ADF80020BDF90F
:100DE0000A308B42B8BF0B46ADF80A30BDF902306D
:100DF0009942A8BF1946ADF80210BDF90C308342E4
:100E0000B8BF0346ADF80C30BDF904309842A8BF16
:100E10001846ADF80400A9E7BDF90830BDF9002077
:100E2000134407EE903AF8EEE77AB6EE007A67EEF2
:100E3000877AFDEEE77A144A17EE903A1384BDF9EB
:100E40000A30BDF902100B4407EE903AF8EEE77A4B
:100E500067EE877AFDEEE77A17EE903A5384BDF994
:100E60000C30BDF904100B4407EE903AF8EEE77A27
:100E700067EE877AFDEEE77A17EE903A9384034B9C
:100E800000229A7005B030BD080F0020000000203D
:100E900010B584B001220421244803F0B6FF80215C
:100EA0006B20FFF713FD642003F0B2F807216820E0
:100EB000FFF70CFD642003F0ABF87520FFF7A2FDEF
:100EC00070282FD11A4B6C460FCB07C42380002407
:100ED0000CE004AB03EB440313F80F1C13F8100CE5
:100EE000FFF7F4FC012003F093F80134062CF0DD49
:100EF000FFF7AEFE0F4B1B78012B09D00D4B5B7833
:100F0000012B08D00B4B9B78012B07D000200AE067
:100F1000FFF702FEF2E7FFF74BFEF3E7FFF722FFD2
:100F2000002000E0012004B010BD00BF001002400E
:100F3000308F00080000002018B1034A1060002024
:100F400070470120704700BF440F002003681A68F3
:100F500012F0100F2FD010B582B00446002201927B
:100F60001A6801925B680193019B436B1A681368CE
:100F700023F001031360436B1B685B68202B0CD0CC
:100F8000636B1B6832225A60636B1A68136843F004
:100F900001031360002002B010BD084B1B6813B1A1
:100FA000122107489847074B1B68002BE8D01221F5
:100FB00003489847E4E70020704700BF440F002033
:100FC000480F0020400F002038B5044690F83A0042
:100FD000C0B220281CD1E9B1F2B194F83830012B0D
:100FE0001CD0012384F83830A162A2850025E56376
:100FF000206813460A46011D606B03F0ADFC2268B1
:10100000536943F04003536184F83850284600E0A8
:10101000022038BD0120FCE70120FAE70220F8E7B2
:1010200010B5064C322206492046FFF7CDFF226854
:10103000D36843F01003D36010BD00BFF019022045
:10104000480F002010B50421084805F03BFA0021A4
:10105000074805F037FA074C0021204605F032FA20
:101060000C21204605F02EFA10BD00BFE01602202C
:10107000941702201C170220014BD8625963704755
:101080000018004008B5FFF7F5F91E4B1B68C01AA1
:1010900040F6AC53984204D81B4B1B7873B9002020
:1010A00008BD1A4B1A78184B1A70FFF7E3F9154B65
:1010B0001860FFF7DFF9164B1860F0E7FFF7DAF971
:1010C000134B1B68C01A632805D896214FF4FA7099
:1010D000FFF7D2FFE3E7FFF7CDF90D4B1B68C01A0E
:1010E000B0F5967F04D200210846FFF7C5FFD6E78A
:1010F000054A1378013B1370FFF7BCF9044B1860E5
:10110000CDE700BF7C0F0020880F0020800F00205B
:101110008C0F002008B5FFF7ADF9094B1B68C01A0A
:10112000B0F5967F01D8002008BD4FF480410548F6
:1011300003F071FEFFF79EF9014B1860F3E700BF63
:10114000840F00200014024038B50546028AC068AA
:101150006B681B685C680B46B9B9A4B22989091B86
:1011600089B2012B13D0022B14D0891A8CB26B696F
:1011700013B1214610449847298A21442A8991FBBA
:10118000F2F302FB1311298238BD0021E9E7298916
:101190004908E8E72989E8E738B50446838D93B123
:1011A000858B9D4200D91D462A46A16904F1200085
:1011B00000F0BBFC012384F83E302A46A169206878
:1011C00005F012FA38BD002380F83E30FAE700003F
:1011D00008B5084B984203D0074B984205D008BD8C
:1011E00001210648FFF7B0FFF9E701210448FFF7A6
:1011F000ABFFF4E790180220301A0220900F002075
:10120000D017002008B5084B984203D0074B9842EE
:1012100005D008BD02210648FFF796FFF9E7022135
:101220000448FFF791FFF4E790180220301A0220DB
:10123000900F0020D017002008B5074B984203D02C
:10124000064B984204D008BD0548FFF7A5FFFAE712
:101250000448FFF7A1FFF6E790180220301A022099
:10126000900F0020D01700200A4B1B681A6812F05C
:10127000100F00D1704700B583B0002101911A68AA
:1012800001925B680193019B0348FFF75DFF03B088
:101290005DF804FB90180220900F002070B51148F3
:1012A000114EC6604FF400750581104B4360104C21
:1012B0000460104981634FF48062828785830E4BFE
:1012C0008361002380F83E30203000F023FC2A4662
:1012D0003146204605F0CEF92268D36843F010036A
:1012E000D36070BD900F0020D00F00203018022076
:1012F00090180220D0130020D011002070B51148A2
:10130000114EC6604FF400750581104B4360104CC0
:101310000460104981634FF48062828785830E4B9D
:101320008361002380F83E30203000F0F3FB2A4632
:101330003146204605F09EF92268D36843F0100339
:10134000D36070BDD017002010180020D0170220E5
:10135000301A0220101C0020101A00200023052B38
:101360000DDC03EB4302074911F82220824201D031
:101370000133F4E703EB430301EB830070470020E4
:10138000704700BF040000202DE9F041074600B37C
:10139000052920D8EFF3108872B60846FFF7DEFF64
:1013A0000646446800E02468331DA3420BD0A4F134
:1013B000240520223946284606F004F80028F2D1F8
:1013C00088F3108802E088F3108800252846BDE8DD
:1013D000F0810546FAE70025F8E708B50021FFF798
:1013E000D3FF08BD08B1014A1060704710200020EB
:1013F000F8B506460D46EFF3108772B60020FFF7EA
:10140000ADFF0446436800E01B68221D9A420ED0DF
:10141000A3F124001A7A002AF6D1DA8EAA42F3D177
:1014200093F83420B242EFD187F3108802E087F3BB
:1014300010880020F8BD0000F0B583B004464022BB
:101440000021474805F06EFFEFF3108572B60020CB
:10145000FFF784FF43682BE093F83410404A02EB17
:1014600041110E6940F2FF1767F31C060E6193F8F5
:101470003410DE8EA6F2052602EB411101EB460187
:1014800093F93B600E76B3F93A6093F83470D98ED5
:10149000A1F205214900013102EB47120A441676F8
:1014A00093F834102F4A02EB4102012151701B685E
:1014B000021D9A4230D01A7A002AF8D1DA8EB2F59B
:1014C000017FC9D893F83410254A490156584FF482
:1014D000007767F31C06565093F83410DE8EA6F2A0
:1014E000012602EB411101EB460193F93B600E72BC
:1014F000B3F93A6093F83470D98EA1F20121490012
:10150000013102EB47120A44167293F83410154A5F
:10151000012602F81160CAE785F31088002505E06E
:10152000104B03EB440300225A550135012D14DC06
:101530000C4B03EB44035B5D012BF6D10A4B1E6899
:10154000002EEDD005EB4403054A02EB0313DA68E5
:1015500000920ECB2046B047E2E7002003B0F0BD7A
:1015600014200020542000201020002010B5144624
:10157000FFF73EFF20B1026E21469047002010BDCC
:101580006FF00300FBE740B110B50446836E984747
:10159000E36E20469847002010BD6FF003007047AF
:1015A000B0B170B50646056C0D40002407E002F0AE
:1015B00029FD04F1100306EB8303586001341F2C4E
:1015C00004DC0123A340AB43F8D1F0E7002070BD59
:1015D0006FF001007047000028B310B504464FF4C7
:1015E0008061124803F00AFC84F8420028B9002305
:1015F000A365012384F8403010BD012801D00020EC
:10160000FAE7E36AA365002384F8403094F8413098
:10161000012B01D00020EFE7A36C0133A36400206D
:1016200084F84100E8E76FF00100704700140240C1
:1016300008B50521FFF7A8FE08BD00000123132B04
:1016400009D8064A002122F8331002EBC302516088
:101650000133DBB2F3E70020704700BF0C15022016
:1016600010B404460123132B16D819460B4A32F83E
:10167000332012B10133DBB2F5E7EFF3108272B61B
:1016800098B2064B23F8310003EBC1014C6082F3A2
:1016900010885DF8044B70470020FAE70C15022013
:1016A000002300E00133312B13DC0B4A02EB031261
:1016B000B2F89A228242F5D1074A02EB031292F85D
:1016C0009822012AEED11B0103F526730248184423
:1016D00070470020704700BF582000202DE9F047D8
:1016E00084B004460D4617469A460846FFF7D8FFD1
:1016F0000646204600F00AF98046C6B13679FF2C2E
:1017000017D0012E1ED04FF0000900220292019541
:10171000CDF800A03B464946204600F037F9044684
:10172000ACB9104BD3F804319BB1984711E00026B7
:10173000E5E72A465146384600F090F804464FF057
:101740000009EDE7404600F013F88146DDE7012E81
:1017500003D0204604B0BDE8F0874946404600F07B
:1017600019F8F6E75820002008B500F0FDFA08BD8A
:1017700000231E2B0CDCC21892F863200AB101333F
:10178000F7E71844012280F863201344D8B2704769
:10179000002070474B1EDBB21E2B05D801390144D7
:1017A000002081F8630070474FF0FF307047000061
:1017B00070B5054616461C46AA2323700278A37806
:1017C00062F38703A370244B1B78237183786371C2
:1017D000C378E370BDF8103023810023A371E37157
:1017E000C37813F0200F1DD006F110036370C3F30C
:1017F0000122A37823F003031343A370324604F1BC
:101800000C0005F0F5FC0C21204600F039FBEB78CC
:1018100013F0200F19D006F11001204600F060FBF4
:10182000002070BD06F112036370C3F30122A37898
:1018300023F003031343A370BDF81430A381324691
:1018400004F10E0005F0D4FCDDE706F1120120469C
:1018500000F046FBE4E700BF58200020B1F5007F10
:1018600001D9012070472DE9F04784B080460E462B
:1018700017469DF80F3003F0C0036FF387138DF800
:101880000F30FF238DF80E300023ADF80C3001F13E
:1018900042094846FFF768FF0446002832D000F1AD
:1018A000300A01970025009553463246414603A869
:1018B000FFF77EFF6574C4F808A006F11209A4F8CA
:1018C0000C900123E375E5612583E57384F82030EE
:1018D000FF23A374A5752574A7826562EFF31082B8
:1018E000094BDA6072B61A685460226063601C604B
:1018F0001A7A01321A72DB6883F31088284604B022
:10190000BDE8F0870220FAE7AC1502200B4B034438
:101910005B78052B0DD80949942202FB031292F83B
:10192000192642B1942000FB03F000F5B76008448B
:101930007047002070470020704700BF58200020EB
:1019400030B400F14805EFF310840F4BC3F8A04802
:1019500072B6C06C436801E018465B68A8420BD0C1
:10196000447C9442F8D1847C8C42F5D1064BD3F868
:10197000A03883F3108805E0034BD3F8A03883F335
:101980001088002030BC7047582000202DE9F04F0F
:1019900087B00393BDF844A0BDF848B00023059379
:1019A000109BB3F5007F00F2AF80074688461546CE
:1019B0009DF8173062F3451361F304036FF3871347
:1019C0008DF817308DF816000023ADF81430FFF7AE
:1019D0009DFF0646002800F0998015B9B8F1000F68
:1019E00066D1012D6CD0109B03F142094846FFF7E8
:1019F000BBFE0446002800F08B8065B9EFF310832E
:101A0000F36572B6B6F858B00BF10103A6F858307A
:101A1000F36D83F3108804F13003CDF804A0CDF802
:101A200000B09B46109A039905A8FFF7C1FE9DF8E8
:101A30001730C3F304036374C4F808B0A9F1300984
:101A4000A4F80C900023E361E373012284F82020C2
:101A5000A774A5752374A4F814A063625046FFF719
:101A60001FFE002830D04279E275C2882283826846
:101A7000A262C368E362EFF31083F36572B615B92F
:101A8000B8F1000F27D1002D31D106F14803B26C17
:101A9000546022606360B46496F85A30013386F86B
:101AA0005A30F36D83F31088002007B0BDE8F08F43
:101AB00042463946FFF744FF002892D00520F4E75C
:101AC000109B03F1400991E70123E3750023238371
:101AD000A362E362CFE7424639463046FFF730FF64
:101AE0000028D0D0F36D83F310880520DDE706F1E0
:101AF0005003326D546022606360346596F85B3049
:101B0000013386F85B30CCE70120CEE70620CCE736
:101B10000220CAE703460160501E084458609A60DC
:101B20000020D8601961596170472DE9F843EFF33F
:101B3000108872B6002932D004460F46C56875B3C6
:101B400003694668B34201D9036803619542A8BF9F
:101B500015462169761A0136B54211DC2A46384607
:101B600005F046FB23692B442361A3682B44A36043
:101B7000E3685B1BE36088F310882846BDE8F883C0
:101B8000A5EB06093246384605F032FB4A46216885
:101B9000B81905F02DFB22684A442261E5E788F375
:101BA00010884FF0FF35E8E710B40446016003FBEE
:101BB00002F0013808446060A3600020E060226108
:101BC0006161A1615DF8044B704738B5EFF3108592
:101BD00072B68368C3B10446826943689A4201D9E8
:101BE000036883612269A06905F002FB2269A36989
:101BF0001344A361A368013BA360E3680133E3607E
:101C000085F31088002038BD85F310884FF0FF3031
:101C1000F9E738B50446EFF3108572B6C368C3B16F
:101C20000846626963689A4201D923686361226940
:101C3000616905F0DDFA2269636913446361A36891
:101C40000133A360E368013BE36085F31088002063
:101C500038BD85F310884FF0FF30F9E710B5044622
:101C6000C368B3B10846626963689A4201D92368C0
:101C700063612269616905F0BBFA226963691344F3
:101C80006361A3680133A360E368013BE360002064
:101C900010BD4FF0FF30FBE7C068B0FA80F040099C
:101CA00070478068B0FA80F040097047124A12F01D
:101CB000070F1ED0D11D21F00701C1F57043134459
:101CC0000A460E480260002141601344083B23F09D
:101CD00007030B48036059601960991A516013603B
:101CE000084B1960084B1960084B4FF000421A600E
:101CF00070474FF47043E4E70C29002010190120CD
:101D0000002900200429002008290020FC280020A8
:101D100010B4134B1A461B688342FBD35168541806
:101D200084420AD041684418A3420BD00360904219
:101D300000D010605DF8044B70474068014451606A
:101D40001046EFE7074C2468A34206D05B681944AD
:101D5000416013681B680360E9E70460E7E700BFC0
:101D6000101901200029002070B505462F4B1B7863
:101D700013B92E4B01221A70EFF310822C4B1A600C
:101D800072B62C4B1B68A3B12B4B1B681D4244D170
:101D900035B1083515F0070F02D025F007050835D5
:101DA000002D3CD0254B1B68AB423AD3244A146823
:101DB00004E0FFF77BFFE7E722461C466368AB427F
:101DC00002D22368002BF7D11A4B1B68A3422AD0FA
:101DD000166808362368136063685B1B102B16D8DF
:101DE000626816490B689B1A0B60164909688B429A
:101DF00001D214490B60104B1B681343636000232E
:101E000023600B4B1B6883F31088304670BD60194C
:101E100043606560FFF77CFFE2E70026F1E70026FC
:101E2000EFE70026EDE70026EBE700BF0C190120E5
:101E3000BC15022000290020FC28002008290020D1
:101E40001019012004290020034698B1481E99B1B9
:101E500010B413F8011B5140C9B2084C34F81110EA
:101E600081EA1222014601380029F2D110465DF8BC
:101E7000044B70474FF6FF7210467047809300087E
:101E800080B170B50C46054602290AD98E1E43F66C
:101E9000A3223146FFF7D8FFA855013CC0F3072025
:101EA000285570BD70470000034698B1481E99B18F
:101EB00010B413F8011B5140C9B2084C54F821105A
:101EC00081EA1222014601380029F2D110465DF85C
:101ED000044B70474FF6FF7210467047808F000822
:101EE000B8B170B50C460546042911D90E1F43F64A
:101EF000A3223146FFF7D8FFA855E31EC0F30722FF
:101F0000EA54A31EC0F30742EA54013C000E2855D0
:101F100070BD7047842801D003307047002070479F
:101F2000EFF30580003818BF0120704708B500F0B6
:101F3000E9F9002008BD08B5FFF7F2FF10B100F085
:101F40002DFA08BD00F024FAFBE7F0B585B00C4689
:101F5000456806680769B0F90800FFF7DBFF03ABC7
:101F6000019300902346BAB23146284600F098F912
:101F7000012802D1039805B0F0BD0020FBE708B5A9
:101F800000F014FC012800D108BD00F0EBFCFBE7D9
:101F900008B501B9012100F011FB002008BD00F1D6
:101FA000080343604FF0FF328260C3600361002387
:101FB0000360704700230361704743684B609A6871
:101FC0008A6051609960086103680133036070475B
:101FD00030B40D68B5F1FF3F11D000F108031C4685
:101FE0005B681A68AA42FAD963684B6099608C6092
:101FF0006160086103680133036030BC70470469A5
:10200000F2E70369416882688A60416851605A68F2
:10201000824205D0002202611868013818607047BA
:1020200082685A60F6E70000084B1B681B6823B9FA
:10203000074B4FF0FF321A607047044B1B68DB6898
:10204000DB685A68024B1A60704700BF1C190120F8
:10205000F419012010B50446006B00F033FE204651
:1020600000F030FE10BD2DE9F04780460D461746C2
:102070009946089EDDF824A00A9C9200A521206BB9
:1020800005F050F9236B07F18042013A03EB820718
:1020900027F0070700220F2A07D8A95CA31883F8A6
:1020A0003410AB5C0BB10132F5E7002384F8433008
:1020B000062E00D90626E66266640025A564201D6A
:1020C000FFF778FF04F11800FFF774FF2461C6F1F1
:1020D0000706A6616462E56484F850504A464146AA
:1020E000384600F0A7FB2060BAF1000F01D0CAF813
:1020F0000040BDE8F087000038B5002407E004EB9D
:10210000840293000E481844FFF749FF0134062C5F
:10211000F5D90C4D2846FFF742FF0B4C2046FFF740
:102120003EFF0A48FFF73BFF0948FFF738FF094821
:10213000FFF735FF084B1D60084B1C6038BD00BF22
:1021400024190120C8190120DC190120FC190120E3
:10215000281A0120141A01201C190120201901201D
:1021600010B5044600F08EFB204A1368013313605B
:102170001F4B1B685BB11F4B1B686BB91C4B1B686B
:10218000DA6AE36A9A4207D8194B1C6004E0184BDC
:102190001C601368012B26D0174A136801331360A3
:1021A000E06A01238340154A11680B43136000EB7A
:1021B0008000211D124B03EB8000FFF7FEFE00F0B4
:1021C00083FB0C4B1B686BB1094B1B68DA6AE36A33
:1021D0009A4207D20B4B4FF080521A60BFF34F8FD9
:1021E000BFF36F8F10BDFFF787FFD5E7B019012050
:1021F00018190120101A0120C0190120C41901204A
:102200002419012004ED00E070B504460D461D4B75
:102210001E681D4B18680430FFF7F3FE50B91A4BC7
:102220001B68DA6A012303FA02F218490B6823EAF1
:1022300002030B60B4F1FF3F0DD03444124B1B6816
:102240005C60A64210D9124B18680F4B1968043114
:10225000FFF7BEFE70BD002DEFD00B4B19680431A7
:102260000C48FFF7AAFEF5E70B4B1868064B1968F8
:102270000431FFF7ADFE094B1B68A342EAD9074BB7
:102280001C60E7E73C1A012018190120C41901203D
:1022900020190120141A01201C190120F419012011
:1022A0002DE9F04385B00746884614461E46900047
:1022B00000F086FCF0B18146542000F081FC054618
:1022C000A0B1C0F83090D5B10023039302950D9BC7
:1022D00001930C9B00933346224641463846FFF754
:1022E000C2FE2846FFF73CFF012005E0484600F00B
:1022F000E9FCE8E74FF0FF3005B0BDE8F0834FF0B0
:10230000FF30F9E700B583B0174B0193002300932A
:10231000802216491648FFF7C3FF012805D0B0F107
:10232000FF3F17D003B05DF804FB4FF0500383F379
:102330001188BFF36F8FBFF34F8F0E4B4FF0FF32FB
:102340001A600D4B01221A600C4B00221A6000F03B
:1023500035FBE7E74FF0500383F31188BFF36F8F2E
:10236000BFF34F8FFEE700BFF019012080950008F2
:10237000BD260008F4190120101A01203C1A012082
:10238000024A136801331360704700BFBC19012073
:10239000014B1868704700BF3C1A012008B500F0D7
:1023A00083FB014B186808BD3C1A0120F8B53A4B75
:1023B0001B68002B64D1394B1D6801351D60C5B900
:1023C000374B1B681B6843B14FF0500383F31188F0
:1023D000BFF36F8FBFF34F8FFEE7314A1168314B68
:1023E000186810601960304A136801331360FFF7F2
:1023F0001BFE2E4B1B68AB4238D900242C4B1B68AC
:10240000DB6A03EB83039A002A4B9B58012B3CD9D0
:1024100001243AE00124224B1B681B6843B3204B84
:102420001B68DB68DE6873689D4226D3371D38461B
:10243000FFF7E7FDB36A1BB106F11800FFF7E1FDF6
:10244000F36A01229A401C49086802430A6003EBC0
:1024500083039A00394617481044FFF7AEFDF26A2D
:10246000134B1B68DB6A9A42D4D2D4E70024D2E72C
:102470000E4B4FF0FF321A60C0E70C4A1360BDE705
:102480000E4A13680133136000240D4B1B6803B11F
:1024900001242046F8BD00BFBC1901203C1A0120D0
:1024A0001C19012020190120F8190120F41901201C
:1024B0001819012024190120C4190120B81901207C
:1024C000401A012038B5344B1B6843B94FF0500314
:1024D00083F31188BFF36F8FBFF34F8FFEE700F0D8
:1024E000D1F92D4B1A68013A1A601B68002B4DD1A7
:1024F0002A4B1B680BB9002449E00024284B1B68B9
:102500001BB3274BDB68DC6804F11800FFF779FD8B
:10251000251D2846FFF775FDE06A01238340214A07
:1025200011680B43136000EB800029461E4B03EB40
:102530008000FFF742FDE26A1C4B1B68DB6A9A428F
:10254000DCD31B4B01221A60D8E70CB1FFF76CFDFE
:10255000184B1C6874B9164B1C68C4B1164B4FF06D
:1025600080521A60BFF34F8FBFF36F8F01240EE0CC
:10257000013C07D0FFF71AFF0028F9D00C4B0122CD
:102580001A60F5E70B4B00221A60E4E7002400F024
:102590009BF9204638BD00BFBC190120B0190120AD
:1025A000FC190120C4190120241901201819012047
:1025B000401A0120B819012004ED00E038B558B1E7
:1025C0000C46054689B94FF0500383F31188BFF3D9
:1025D0006F8FBFF34F8FFEE74FF0500383F31188E7
:1025E000BFF36F8FBFF34F8FFEE71A4B1B6843B1EA
:1025F0004FF0500383F31188BFF36F8FBFF34F8FFA
:10260000FEE7FFF7BDFE144B18682A6814448242A7
:1026100009D9A24201D82C600EE0A04201D32C605F
:102620000AE02C6004E0A24201D8A04210D22C6043
:102630000021201AFFF7E8FDFFF744FF38B9074BE8
:102640004FF080521A60BFF34F8FBFF36F8F38BDCA
:102650002C60F1E7BC1901203C1A012004ED00E0D8
:10266000134B1B6813B310B5FFF78AFE114B1C68A0
:10267000FFF728FF24B90E4B1B68002BF4D110BDC7
:1026800000F000F90B4BDB68DC68201DFFF7B9FC9C
:10269000094A1368013B1360054A1368013B136044
:1026A00000F012F92046FFF7D5FCE4E7704700BFC1
:1026B000B4190120281A0120B019012008B5FFF72C
:1026C000CFFF064B1B68012BF9D9054B4FF0805209
:1026D0001A60BFF34F8FBFF36F8FF0E7241901200B
:1026E00004ED00E02C4B1B681BB12C4B01221A603F
:1026F000704710B5294B00221A60294B1B681B6BD1
:102700001A68B2F1A53F03D15A68B2F1A53F1BD0B8
:10271000234B18681968343100F0BAFB214B1B6851
:10272000B3FA83F3DBB2C3F11F0303EB83018A0027
:102730001D498A588AB94FF0500383F31188BFF3BB
:102740006F8FBFF34F8FFEE79A68B2F1A53FDFD1DD
:10275000DB68B3F1A53FDBD1E0E7134903EB83006E
:1027600082000A4450684068506003EB8304A20072
:10277000144608321144884209D003EB83039A00BF
:10278000094B13445B68DA68054B1A6010BD40685A
:10279000054A22445060F0E7BC190120401A01208C
:1027A00018190120C419012024190120054B1B68A8
:1027B00033B1054B1B680BB10020704702207047F6
:1027C00001207047101A0120BC1901200B4B1B6817
:1027D000B3F1FF3F08D04FF0500383F31188BFF3EC
:1027E0006F8FBFF34F8FFEE74FF0500383F31188D5
:1027F000BFF36F8FBFF34F8FFEE700BF4C00002089
:1028000006480068006880F3088862B661B6BFF3C6
:102810004F8FBFF36F8F00DF00BF000008ED00E0B7
:10282000DFF80C00016841F470010160704700009E
:1028300088ED00E04FF0807340F8043C21F0010186
:1028400040F8081C054B40F80C3C40F8202C6FF079
:10285000020340F8243C4438704700BFCD270008ED
:10286000074B19680868B0E8F04F80F30988BFF398
:102870006F8F4FF0000080F311887047AFF3008036
:10288000181901204FF0500383F31188BFF36F8FA5
:10289000BFF34F8F0A4A136801331360012B00D036
:1028A0007047084B1B6813F0FF0FF9D04FF050032F
:1028B00083F31188BFF36F8FBFF34F8FFEE700BF25
:1028C0004C00002004ED00E0094B1B6843B94FF0B9
:1028D000500383F31188BFF36F8FBFF34F8FFEE771
:1028E000013B034A13600BB983F31188704700BFA3
:1028F0004C0000200000000000000000000000006C
:10290000EFF30980BFF36F8F154B1A681EF0100F9D
:1029100008BF20ED108A20E9F04F10604DF8043D0B
:102920004FF0500080F31188BFF34F8FBFF36F8FCC
:10293000FFF7D8FE4FF0000080F3118808BC19683B
:102940000868B0E8F04F1EF0100F08BFB0EC108A16
:1029500080F30988BFF36F8F704700BFAFF300802B
:102960001819012008B54FF0500383F31188BFF305
:102970006F8FBFF34F8FFFF719FD18B1034B4FF067
:1029800080521A60002383F3118808BD04ED00E033
:10299000064B1B68064AA2FB03239B09013B054A21
:1029A0001360054B07221A60704700BF50000020DB
:1029B000D34D621014E000E010E000E0314B1A68E3
:1029C000314B9A421AD02F4B1A68304B9A421ED084
:1029D00000B583B02E4B1A78D2B20192FF221A7042
:1029E0001B78DBB28DF803309DF8033003F0500301
:1029F000284A1370284B07221A601BE04FF050033F
:102A000083F31188BFF36F8FBFF34F8FFEE74FF053
:102A1000500383F31188BFF36F8FBFF34F8FFEE72F
:102A20001D4A1368013B13609DF803305B00DBB265
:102A30008DF803309DF8033013F0800FF0D1164A63
:102A400013681B0203F4E0631360019BDBB2104ABE
:102A50001370124B1A6842F470021A601A6842F03E
:102A600070421A60FFF794FF0D4B00221A60FFF7C7
:102A7000D7FE0C4A136843F040431360FFF7C0FED3
:102A8000FFF7A4FE00ED00E071C20F4170C20F41DC
:102A900000E400E0441A0120481A012020ED00E083
:102AA0004C00002034EF00E0EFF305830F2B0FD92B
:102AB000104A9B5CDBB2104A12789A4208D94FF058
:102AC000500383F31188BFF36F8FBFF34F8FFEE77F
:102AD0000A4B1B6803F4E063094A1268934208D961
:102AE0004FF0500383F31188BFF36F8FBFF34F8F05
:102AF000FEE77047F0E300E0441A01200CED00E02F
:102B0000481A0120124A12F0070F1ED0D11D21F0E1
:102B10000701C1F5704313440A460E4802600021C4
:102B200041601344083B23F007030B4803605960DE
:102B30001960991A51601360084B1960084B1960AD
:102B4000084B4FF000421A6070474FF47043E4E7BF
:102B5000501A01205C0A02204C1A0120580A022057
:102B6000540A0220500A022010B4134B1A461B6864
:102B70008342FBD35168541884420AD041684418F8
:102B8000A3420BD00360904200D010605DF8044B6C
:102B900070474068014451601046EFE7074C2468D5
:102BA000A34206D05B681944416013681B68036048
:102BB000E9E70460E7E700BF5C0A02204C1A012045
:102BC00070B50446FFF7DCFB394B1B689BB1394BF2
:102BD0001B681C4212D134B1083414F0070F02D024
:102BE00024F007040834D4B1334B1B68A3421AD332
:102BF000324B1D681DE0FFF785FFE8E7FFF762FC39
:102C0000002600F046F916F0070F4FD04FF05003A2
:102C100083F31188BFF36F8FBFF34F8FFEE7FFF78A
:102C200051FC0026EDE7FFF74DFC0026E9E72B46B7
:102C300015466A68A24202D22A68002AF7D11C4AC5
:102C40001268AA4214D01E6808362A681A606B6897
:102C50001B1B102B14D9281910F0070F0CD04FF0A4
:102C6000500383F31188BFF36F8FBFF34F8FFEE7DD
:102C7000FFF728FC0026C4E743606C60FFF774FF91
:102C80006A680D490B689B1A0B600D4909688B42F5
:102C900001D20B490B60074B1B6813436B60002389
:102CA0002B60FFF70FFC002EADD1AAE7304670BDB8
:102CB0004C1A0120500A0220540A02205C0A022009
:102CC000580A022080B338B50446A0F1080550F830
:102CD000043C164A1268134208D14FF0500383F3A4
:102CE0001188BFF36F8FBFF34F8FFEE750F8081CBA
:102CF00041B14FF0500383F31188BFF36F8FBFF3DF
:102D00004F8FFEE723EA020340F8043CFFF738FB4D
:102D100054F8041C064A13680B4413602846FFF756
:102D200023FFFFF7CFFB38BD704700BF500A0220DA
:102D3000540A022008B50F480F4B03600723436075
:102D400000228260C2604FF4803303614FF40013AD
:102D500043610276012343768376C3760277437715
:102D600001F06AF900B908BD5021044800F0A6F945
:102D7000F9E700BFE81502200064004088950008CC
:102D800010B588B003683C4A934204D03B4A934252
:102D900032D008B010BD3A4A136801331360012BDA
:102DA0001DD003230393022204920024059406936A
:102DB0000923079303A9334801F02EFF224605217A
:102DC000132001F04DFD132001F07EFD2246052168
:102DD000142001F045FD142001F076FDD9E7002311
:102DE0000093294B1A6C42F000721A641B6C03F0BA
:102DF00000730093009BD4E700230193224B1A6CCD
:102E000042F080621A641B6C03F080630193019BA3
:102E10001B4A136801331360012B1FD04FF440533A
:102E200003930223049300240594032306930923A8
:102E3000079303A9154801F0EFFE224605213F2024
:102E400001F00EFD3F2001F03FFD2246052140200C
:102E500001F006FD402001F037FD9AE700230293C0
:102E6000094B1A6C42F000721A641B6C03F0007379
:102E70000293029BD2E700BF00640040006800405C
:102E8000640A0220000C02400038024000040240A4
:102E9000704770472DE9F0438FB0002400947A4BBF
:102EA0001A6B42F001021A631A6B02F001020092DF
:102EB000009A01941A6B42F002021A631A6B02F034
:102EC00002020192019A02941A6B42F004021A6300
:102ED0001A6B02F004020292029A03941A6B42F0F7
:102EE00008021A631A6B02F008020392039A049410
:102EF0001A6B42F010021A631A6B02F0100204926D
:102F0000049A05941A6B42F020021A631A6B02F0BD
:102F100020020592059A06941A6B42F040021A6349
:102F20001A6B02F040020692069A07941A6B42F05E
:102F300080021A631A6B02F080020792079A0894C3
:102F40001A6B42F480721A631B6B03F4807308934C
:102F5000089B4E4F01220421384601F056FFDFF84E
:102F6000389101223C21484601F04FFF484E22464D
:102F700044F24001304601F048FF22464FF4006120
:102F8000384601F042FF22464FF48041304601F0BE
:102F90003CFFDFF8088101224FF4FF71404601F049
:102FA00034FF40F60403099301250A950B940C9411
:102FB00009A9384601F030FE3C2309930A950B9489
:102FC0000C9409A9484601F027FE4FF48063099349
:102FD000DFF8CC90CDF828900B9509A9304601F088
:102FE0001BFE4FF4006309930A950B940C9409A9F6
:102FF000384601F011FE4FF4805309930A950B9562
:1030000003230C93A7F5806709A9384601F004FE55
:10301000402309930A940B950C9409A9384601F0B2
:10302000FBFD44F2400309930A950B940C9409A903
:10303000304601F0F1FD04230993CDF828900223D6
:103040000B930C9409A9134801F0E6FD4FF4FF73AC
:1030500009930A950B940C9409A9404601F0DCFDF4
:1030600022460521282001F0FBFB282001F02CFC42
:1030700022460521082001F0F3FB082001F024FC82
:103080000FB0BDE8F08300BF0038024000100240DE
:103090000014024000040240001C024000180240DC
:1030A0000000311008B50268034B9A4200D008BDF9
:1030B00000F09CFFFBE700BF000C0040FEE70000B3
:1030C00000B595B0002101912B4B1A6C42F0805253
:1030D0001A641B6C03F080530193019B0291274BF0
:1030E0001A6842F440421A601B6803F4404302939A
:1030F000029B012308934FF48033099302230E931C
:103100004FF480020F9206221092A822119212937D
:103110000723139308A802F0BFFA20BB0F230393E1
:1031200002230493002305934FF4A05306934FF416
:1031300080530793052103A802F0CAFCB8B902F036
:1031400075FD0F4BA3FB0030800901F0C9FB042083
:1031500001F0DCFB00220F214FF0FF3001F080FB7B
:1031600015B05DF804FBE5210648FFF7A7FFF32142
:103170000448FFF7A3FF00BF003802400070004082
:10318000D34D6210A495000808B500F015FFFFF7B5
:1031900097FFFFF777FBFFF77DFEFFF7CBFD00F012
:1031A00033FAFDF783F8FDF785F8FEF7BFFEFEE77B
:1031B00010B582B000240094214B5A6C42F4804236
:1031C0005A645A6C02F480420092009A01941A6C7C
:1031D00042F080521A641B6C03F080530193019BF0
:1031E000032001F02BFB224621466FF00B0001F07B
:1031F00037FB224621466FF00A0001F031FB2246E0
:1032000021466FF0090001F02BFB224621466FF0AA
:10321000040001F025FB224621466FF0030001F077
:103220001FFB22460F216FF0010001F019FB22461F
:103230000F214FF0FF3001F013FB02B010BD00BFB3
:103240000038024010B588B001460022322001F05B
:1032500007FB322001F038FB00240194144B1A6C58
:1032600042F008021A641B6C03F008030193019BEF
:1032700002A903A802F0F0FC02F0DEFC43000D48B6
:10328000A0FB03239B0C013B0B480C4A026040F25D
:10329000E732C26043600461846003F02FF810B12C
:1032A000012008B010BD044802F0FAFEF9E700BFA3
:1032B0000038024083DE1B4368160220000C0040E9
:1032C00070470000034B1B6813F0010F00D000BED5
:1032D000FEE700BFF0ED00E0FEE7FEE7FEE7704727
:1032E00008B5FEF74CFE08BD08B5024801F0A6FB84
:1032F00008BD00BF3018022008B5024801F09EFB4F
:1033000008BD00BFD018022008B5024801F05CF9E2
:1033100008BD00BFE815022008B5024801F054F9C5
:1033200008BD00BFE815022008B5024802F0C8FE3B
:1033300008BD00BF5817022010B5044C2046FDF709
:1033400005FE204603F0B0FA10BD00BFF0190220C0
:1033500008B5FDF789FF024803F0A6FA08BD00BFD3
:103360009018022008B5024802F0AAFE08BD00BF6E
:103370006816022008B54FF4806001F051FD08BDC9
:1033800008B5042001F04CFD08BD000008B5024856
:1033900001F054FB08BD00BFD017022008B5024859
:1033A00001F012F908BD00BFC015022008B502489F
:1033B00001F00AF908BD00BFC015022008B5024897
:1033C00001F092FD08BD00BF701A022008B5024846
:1033D00001F034FB08BD00BF9019022008B5024877
:1033E00001F02CFB08BD00BF3019022008B5FDF725
:1033F0003BFF024803F058FA08BD00BF301A022014
:103400000F49D1F8883043F47003C1F888300D4B70
:103410001A6842F001021A60002098601A6822F0CF
:10342000847222F480321A60074A5A601A6822F4C1
:1034300080221A60D8604FF000638B60704700BF35
:1034400000ED00E0003802401030002484B0036832
:10345000204A934215D0204A934220D01F4A9342DB
:103460002AD01F4A934218D1002303931D4B1A6C94
:1034700042F004021A641B6C03F004030393039BE1
:103480000BE000230093174B5A6C42F001025A6480
:103490005B6C03F001030093009B04B070470023B2
:1034A0000193104B1A6C42F002021A641B6C03F079
:1034B00002030193019BF0E700230293094B1A6C6E
:1034C00042F040021A641B6C03F040030293029B1B
:1034D000E3E700BF00000140000400400018004086
:1034E00000080040003802400368B3F1804F00D06C
:1034F000704700B583B00022019203F50E33196CBA
:1035000041F0010119641B6C03F001030193019B5D
:1035100005211C2001F0A4F91C2001F0D5F903B00D
:103520005DF804FB70B586B003682E4A93420AD05A
:103530002D4A934221D02D4A93422BD02C4A9342BC
:1035400036D006B070BD4FF4807301930226029608
:103550000024039404940125059501A9254801F050
:103560005BFB4FF48043019302960394049405950A
:1035700001A9214801F050FBE3E720230193022336
:103580000293002203920492059301A91B4801F0C3
:1035900043FBD6E7402301930223029300230393C6
:1035A00004930923059301A9154801F035FBC8E7E9
:1035B0004FF40043019302240294002503950495DF
:1035C0000594104E01A9304601F026FB4FF48043CC
:1035D0000193029403950495059401A9304601F0E6
:1035E0001BFBAEE700000140000400400018004053
:1035F00000080040000002400010024000040240A9
:10360000001C0240000C024000B58BB02248234B46
:103610000360532343600023836042F20F72C26051
:103620000361436102F084FE08BB00230893099301
:1036300008A9194802F062FFF0B96023019340F62F
:10364000B8330293002303930593082201A912487B
:1036500002F0BAFEA8B90C2201A90F4802F0B4FE8C
:10366000A0B90D48FFF75EFF0BB05DF804FBCC215D
:103670000B48FFF723FDD8E7D3210948FFF71EFDCC
:10368000DBE7E1210648FFF719FDE4E7E7210448FD
:10369000FFF714FDE5E700BFA41602200008004074
:1036A000D895000808B500F56F71D0F8EC0300F06C
:1036B000ECF808BD08B5C1EBC10300EB8303D3F8F8
:1036C0000422D0F8EC0300F00DF908BD08B5C1EBF9
:1036D000C10300EB83035A6CD0F8EC0300F038F917
:1036E00008BD08B5D0F8EC0300F0BCF908BD10B572
:1036F0000446C3684BB10121D4F8EC0300F0A0F9F3
:10370000D4F8EC0300F07DF910BD0021F4E70000CF
:1037100010B50446D0F8EC0300F095F92268D2F811
:10372000003E43F00103C2F8003E236A23B1034A7E
:10373000136943F00603136110BD00BF00ED00E004
:1037400008B5D0F8EC0300F087F908BD08B5D0F84B
:10375000EC0300F097F908BD08B5D0F8EC0300F0D1
:103760008FF908BD08B5D0F8EC0300F08DF908BD5D
:1037700008B5D0F8EC0300F089F908BD10B514467F
:103780001A462346D0F8200201F09CFE022805D8F4
:10379000DFE800F005040200012000E0022010BD77
:1037A00008B5D0F8200201F019FF022805D8DFE89B
:1037B00000F005040200012000E0022008BD08B569
:1037C000D0F8200201F03DFF022805D8DFE800F024
:1037D00005040200012000E0022008BDD0F82032DC
:1037E00011F0800F08D101F07F01C1EBC10103EBA3
:1037F000810191F8FA01704701F07F01C1EBC1012D
:1038000003EB810191F83A00704708B5D0F8200227
:1038100001F046FE022805D8DFE800F005040200AA
:10382000012000E0022008BD08B5D0F8200201F018
:10383000ABFE022805D8DFE800F0050402000120F5
:1038400000E0022008BD08B5D0F8200201F06EFEAD
:10385000022805D8DFE800F005040200012000E09E
:10386000022008BD08B5D0F814322BB11B68984768
:1038700000B908BD0220FCE70220FAE708B5D0F83D
:1038800014325B689847002008BD38B5044600F53F
:103890000275284600F015F90123C4F8F431B4F894
:1038A0000E32C4F8F83194F8081201F01F03012B0E
:1038B0000ED0022B11D02BB101F080012046FFF772
:1038C0006FFF03E02946204600F075FA002038BD5E
:1038D0002946204600F093FAF8E72946204600F0F2
:1038E000A9FAF3E710B5044629BB1346D0F8F42132
:1038F000032A01D0002010BDD0F80C11D0F81021FF
:1039000091420BD8D0F814321B691BB190F8FC21FE
:10391000032A0ED0204600F038FBEBE7891AC0F8E6
:103920000C118A4228BF0A4692B2194600F025FBC4
:10393000E0E79847EEE70A46D0F814329B69002B7F
:10394000D8D090F8FC110329D4D111469847D1E77B
:1039500010B50446002947D11346D0F8F421022AB5
:1039600005D094F80032012B3AD0002010BDC16977
:10397000026A914217D88169B1FBF2F302FB13137B
:103980002BB98A4203D8D0F8F831994218D3D4F829
:103990001432DB681BB194F8FC21032A1DD02046A9
:1039A00000F0FEFADDE78A1AC26192B2194600F011
:1039B000DCFA00231A4619462046FFF744FFD0E7F9
:1039C0000022114600F0D1FA0021C4F8F8110B468C
:1039D0000A462046FFF737FFC3E720469847DEE751
:1039E000002384F80032C0E70A46D0F814325B693D
:1039F000002BBAD090F8FC110329B6D11146984794
:103A0000B3E738B50446402300221146FFF7B6FE5F
:103A10004025C4F810512B46002280212046FFF794
:103A2000ADFE2562012384F8FC31D4F818322BB1A5
:103A3000D4F814325B68217920469847002038BDBD
:103A400001740020704790F8FC3180F8FD310423A8
:103A500080F8FC310020704790F8FD3180F8FC318F
:103A60000020704708B590F8FC31032B01D00020EE
:103A700008BDD0F81432DB69002BF8D09847F6E780
:103A800000207047002070470020704708B50122D1
:103A900080F8FC21D0F81422526801799047002068
:103AA00008BD4B88012B00D0704710B50446C0F804
:103AB0000432D0F814329B689847204600F065FA2B
:103AC00010BD0B7803704B7843708B78CA7803EB8A
:103AD000022343800B794A7903EB022383808B799D
:103AE000CA7903EB0223C380704710B504468021D6
:103AF000FFF756FE00212046FFF752FE10BD30B5FD
:103B000083B004460D464A88130A013B062B00F297
:103B10008180DFE803F00413277F7F637000D0F813
:103B200010321B680DF10601007C9847BDF8062095
:103B300012B1EB88002B71D103B030BD037C43B9C7
:103B4000D0F814329B6A0DF10600984702234370A7
:103B5000ECE7D0F81432DB6A0DF106009847022337
:103B60004370E3E7D2B2052A34D8DFE802F0030B52
:103B7000131B232BD0F810325B680DF10601007C7B
:103B80009847D3E7D0F810329B680DF10601007C0E
:103B90009847CBE7D0F81032DB680DF10601007CC6
:103BA0009847C3E7D0F810321B690DF10601007C7D
:103BB0009847BBE7D0F810325B690DF10601007C35
:103BC0009847B3E7D0F810329B690DF10601007CED
:103BD0009847ABE72946FFF788FFADE7037C33B989
:103BE000D0F814325B6B0DF1060098479EE729462A
:103BF000FFF77BFFA0E7037C43B9D0F814321B6BBF
:103C00000DF106009847072343708FE72946FFF719
:103C10006CFF91E72946FFF768FF8DE79A4228BFBE
:103C20001A46ADF806200146204600F091F983E7D8
:103C300038B504468B88E3B9CB88D3B98D7805F0C5
:103C40007F0590F8FC31032B0CD080F8FE512946FB
:103C5000FFF7DBFD204600F098F935B1022384F828
:103C6000FC3109E0FFF741FF06E0012384F8FC3155
:103C700002E02046FFF739FF38BD000038B50446A2
:103C80000D468978254B1970012909D890F8FC3127
:103C9000022B09D0032B1CD02946FFF726FF02E098
:103CA0002946FFF722FF38BD81B14160032380F828
:103CB000FC31FFF7D7FD022803D0204600F065F95C
:103CC000F1E729462046FFF710FFECE700F05DF929
:103CD000E9E789B1436899421DD0D9B2FFF7CEFD1B
:103CE0000E4B197861602046FFF7BCFD02280DD00D
:103CF000204600F04AF9D6E7022380F8FC31416003
:103D0000FFF7BCFD204600F040F9CCE729462046ED
:103D1000FFF7EBFEC7E700F038F9C4E7680A0220B6
:103D200008B5CB88012B08D190F8FC31022B07D0C5
:103D3000032B0DD0FFF7D9FE01E0FFF7D6FE08BD3B
:103D40000146002341F8083F012200F001F9F6E79F
:103D50000122011D00F0FCF8F1E708B590F8FC31F4
:103D6000023B012B0CD80123C360D0F804320BB105
:103D70000323C360022200F10C0100F0E9F808BD42
:103D8000FFF7B3FEFBE710B5044690F8FC31023BA9
:103D9000012B0DD84B88012B0CD10023C0F8043225
:103DA000D0F814329B689847204600F0EEF801E006
:103DB000FFF79BFE10BD08B54B78092B1CD8DFE838
:103DC00003F012181B151B09051B0F0CFFF797FEBC
:103DD000002008BDFFF72CFFFAE7FFF74FFFF7E7DA
:103DE000FFF79EFFF4E7FFF7B8FFF1E7FFF759FE93
:103DF000EEE7FFF7C8FFEBE7FFF777FEE8E738B538
:103E000004460D4690F8FC31032B0FD10B79012BA2
:103E100009D8D0F814329B689847EB8843B92046FC
:103E200000F0B3F804E0FFF760FE01E0FFF75DFE8D
:103E3000002038BD38B505460C468A880B7803F05B
:103E40006003202B09D0D1B26378012B2DD0032B36
:103E500008D0002B4DD0002038BDD0F814329B681C
:103E60009847F8E790F8FC31022B05D0032B0AD0D5
:103E70002146FFF73AFEEEE70029ECD08029EAD090
:103E8000FFF78EFCE7E7638813B909B1802909D1F0
:103E9000D5F814329B68214628469847284600F0FA
:103EA00074F8D8E7FFF77CFCF2E790F8FC31022BBE
:103EB00005D0032B0AD02146FFF717FECBE70029D8
:103EC000C9D08029C7D0FFF76BFCC4E76388002BFB
:103ED000C1D111F07F0F03D1284600F056F8BAE7A0
:103EE000FFF76DFCD5F814329B68214628469847A9
:103EF000F2E790F8FC31022B05D0032B09D02146C4
:103F0000FFF7F3FDA7E711F07F0FA4D0FFF748FC00
:103F1000A1E712F0800F11D101F07F04103400EB03
:103F2000041404342846FFF759FC70B101232360C0
:103F300002222146284600F00BF88CE701F07F04AE
:103F4000013400EB04140434ECE700232360EFE7B2
:103F500010B513460222C0F8F4218361C3610A46FA
:103F60000021FFF761FC002010BD08B513460A468A
:103F70000021FFF759FC002008BD08B513460A468A
:103F80000021FFF760FC002008BD08B50423C0F83D
:103F9000F43100231A461946FFF746FC002008BDFD
:103FA00008B50523C0F8F43100231A461946FFF777
:103FB0004AFC002008BD000008B50B4B1A6842F40B
:103FC00000721A601A6842F480621A601A6842F439
:103FD00080721A60032000F031FC0020FFF732F9F4
:103FE000FFF7E6F8002008BD003C0240034A1168D4
:103FF000034B1B780B441360704700BF601E022008
:1040000054000020014B1868704700BF601E02205A
:1040100038B50446FFF7F6FF0546B4F1FF3F02D07E
:10402000044B1B781C44FFF7EDFF401BA042FAD362
:1040300038BD00BF54000020002800F0A18038B532
:10404000044690F82030D3B12268136823F00203AD
:104050001360FFF7D7FF054623685A6812F0020F76
:1040600010D0FFF7CFFF401B0A28F5D9636A43F44D
:1040700000336362052384F82030012038BDFEF749
:104080007FFEE1E71A6842F001021A60FFF7BAFF0B
:10409000054623685A6812F0010F0DD1FFF7B2FFF1
:1040A000401B0A28F5D9636A43F400336362052391
:1040B00084F820300120E1E7227E012A3DD01A68F1
:1040C00022F080021A60637E012B3BD022681368C5
:1040D00023F040031360A37E012B39D022681368BC
:1040E00023F020031360E37E012B37D0226813688E
:1040F00043F010031360237F012B35D0226813682F
:1041000023F008031360637F012B33D02268136808
:1041100023F004031360A368E26813432269134386
:10412000626913436268013A21681343CB6100203E
:104130006062012384F82030A0E71A6842F0800210
:104140001A60C0E72268136843F040031360C2E7B7
:104150002268136843F020031360C4E722681368E1
:1041600023F010031360C6E72268136843F00803C6
:104170001360C8E72268136843F004031360CAE7BA
:104180000120704790F82030DBB2012B0AD090F864
:104190002030DBB2022B05D0436A43F48023436214
:1041A0000120704770B4434BD3F8002242F0010263
:1041B000C3F80022D3F8002222F47C52C3F8002274
:1041C000D3F80022486A42EA0022C3F800224A6972
:1041D000012000FA02F2D3F81C02D44320EA0200C4
:1041E000C3F81C02CB69B3B9324BD3F80C022040A0
:1041F000C3F80C02CE688D88486945EA0645483008
:1042000043F830508E6808884D6940EA06404835CA
:1042100003EBC5035860CB69012B1DD08B69002BC4
:1042200032D12448D0F804322340C0F804320B695C
:104230008BBB204BD3F814020440C3F814420B6A22
:10424000012B2FD01B4AD2F8003223F00103C2F811
:104250000032002070BC7047164BD3F80C0210439C
:10426000C3F80C020E688D88486945EA0645483057
:1042700043F830508E6888894D6940EA06404835D9
:1042800003EBC5035860C9E70A48D0F8043213436A
:10429000C0F80432CBE70748D0F814321343C0F813
:1042A0001432CCE70349D1F81C321A43C1F81C225E
:1042B000C8E700BF0064004070B5044690F8205085
:1042C000EDB2012D06D0436A43F400234362012579
:1042D000284670BD022380F820300268136823F05E
:1042E00001031360FFF78EFE064623685B6813F038
:1042F000010F0CD0FFF786FE831B0A2BF5D9636AEA
:1043000043F400336362052384F82030E0E700259E
:104310006562DDE770B490F82040E4B2012C04D06F
:1043200090F82040E4B2022C69D10468A56815F029
:10433000806F07D1A56815F0006F03D1A56815F04F
:10434000805F56D0A468C4F301640125A5401D60B8
:104350008B68002B3AD10E68CB68056843EA465655
:1043600004F118031B01EE5003680D6904F11806EF
:1043700003EB06135D600B7D012B32D0D17993796D
:104380001B0443EA0163517943EA0123157901686B
:104390002B4301EB0411C1F88C31D17893781B04C5
:1043A00043EA0163517843EA0123117802680B4321
:1043B00002EB0412C2F88831026818342401135940
:1043C00043F001031351002070BC70474D6843EA6D
:1043D000C503CD6806682B4304F118052D01735100
:1043E000C2E7036803EB0613596841F48071596012
:1043F000C4E7436A43F4001343620120E4E7436ADD
:1044000043F4802343620120DEE790F82030DBB2E2
:10441000012B06D090F82030DBB2022B01D0002017
:1044200070470368986810F0806000D001209A6897
:1044300012F0006F00D001309B6813F0805FEFD066
:104440000130704730B490F82040E4B2012C05D020
:1044500090F82040E4B2022C40F0928051B90468F8
:10446000E46814F0030F12D1436A43F4001343626B
:10447000012073E001290AD10468246914F0030FB4
:1044800005D1436A43F400134362012066E00568E6
:1044900001F11B0424012C5904F004049460002C45
:1044A0005ED1056801F11B0424012C59640D1460D0
:1044B000056801F11B0424012D59C5F34005D560A1
:1044C000056825446D6805F00F05156105682544EC
:1044D0006D68C5F30725956105682C446468240C54
:1044E0005461026802EB0112D2F8B8211A70026816
:1044F00002EB0112D2F8B821120A5A70026802EBDC
:104500000112D2F8B821120C9A70026802EB011263
:10451000D2F8B821120EDA70026802EB0112D2F85A
:10452000BC211A71026802EB0112D2F8BC21120AF6
:104530005A71026802EB0112D2F8BC21120C9A7176
:10454000026802EB0112D2F8BC21120EDA7179B9BD
:104550000268D36843F02003D360002030BC70476A
:10456000056801F11B0424012C59E40854609FE7FD
:104570000129F2D10268136943F020031361ECE7CB
:10458000436A43F4802343620120E7E790F8203038
:10459000DBB2012B0AD090F82030DBB2022B05D021
:1045A000436A43F4802343620120704702685369E1
:1045B000194351610020704770477047704770473A
:1045C00070477047704770472DE9F84F05460368FC
:1045D0005C69D3F804809F68D3F80CB0D3F810A0BE
:1045E000D3F8189014F001063BD017F0010616D04E
:1045F00001229A6017F0020F08D117F0040F0CD1B6
:1046000017F0080606D04FF4805608E0FCF7C2F811
:10461000002604E0FFF7D0FF01E04FF4006617F436
:10462000807F0DD02B684FF480729A6017F4007F62
:1046300040F0868017F4806F00F0868046F40056C4
:1046400017F4803F0DD02B684FF480329A6017F436
:10465000003F40F0838017F4802F00F0838046F401
:10466000004614F0080F07D01BF0100F04D046F4DA
:1046700000762B681022DA6014F0040F02D01BF0D1
:10468000080F79D114F0020F04D02B68DB6813F007
:10469000030F78D114F0400F07D01AF0100F04D098
:1046A00046F480662B6810221A6114F0200F02D0A5
:1046B0001AF0080F6BD114F0100F04D02B681B698F
:1046C00013F0030F6AD114F4003F02D018F0100F5A
:1046D00068D114F4803F02D018F0080F69D114F4A7
:1046E000004F7AD018F0040F74D014F4807F04D0F7
:1046F00019F0010F01D046F0010614F4007F04D038
:1047000019F0020F01D046F0020614F4806F04D0B5
:1047100019F0040F01D046F0040614F4006F59D0CC
:1047200019F0700956D0B9F1400F65D058D8B9F1D9
:10473000200F5ED0B9F1300F42D146F0200644E0A0
:104740002846FCF73FF87BE717F4006F02D046F4E9
:10475000804675E72846FFF730FF71E72846FCF7EB
:1047600049F87EE717F4002F02D046F4803678E748
:104770002846FFF723FF74E72B680822DA602846F3
:10478000FFF71DFF7EE72846FCF768F882E72B68F5
:1047900008221A612846FFF714FF8CE72846FFF726
:1047A0000FFF90E72B6810225A602846FFF70AFF98
:1047B0008FE72B6808225A602846FFF704FF8EE730
:1047C000B9F1100F01D146F008062A68936923F069
:1047D000700393612B6804225A609EB9BDE8F88F7C
:1047E000B9F1500F0BD0B9F1600FEED146F48076DD
:1047F000EBE746F01006E8E746F04006E5E746F04E
:104800008006E2E76B6A1E436E622846FCF70AF8F0
:10481000E4E790F82030DBB2012B0AD090F820308A
:10482000DBB2022B05D0436A43F4802343620120AC
:10483000704700234362184670470000074AD36858
:1048400023F4E0631B041B0C000200F4E06003434C
:1048500043F0BF6343F40033D360704700ED00E0E2
:1048600030B4174BDB68C3F30223C3F10704042CF5
:1048700028BF04241D1D062D18D9033B4FF0FF351A
:1048800005FA04F421EA0401994005FA03F322EA47
:104890000303194300280BDB0901C9B200F1604092
:1048A00000F5614080F8001330BC70470023E5E755
:1048B00000F00F000901C9B2024B1954F4E700BF20
:1048C00000ED00E014ED00E000F01F0240090123BC
:1048D0009340024A42F82030704700BF00E100E0F8
:1048E0000138B0F1807F0AD2064B5860064AF021A9
:1048F00082F823100020986007221A607047012078
:10490000704700BF10E000E000ED00E0042805D093
:10491000054A136823F0040313607047024A1368C2
:1049200043F004031360704710E000E030B4056802
:104930002C6824F480242C60046863608368402B16
:1049400005D0036899600368DA6030BC704703687B
:104950009A600368D960F8E738B5044690F83400E7
:1049600001281BD0012084F8340094F83500C0B22F
:10497000012804D0002384F83430022038BD0220FE
:1049800084F83500002565652046FFF7CFFF2268D3
:10499000136843F0010313602846EFE70220EDE7B8
:1049A00038B50446856D90F83400012830D00120D8
:1049B00084F8340094F83500C0B2012804D00023F4
:1049C00084F83430022038BD022084F835000020FD
:1049D00060652046FFF7AAFFE26D3F239340AB607E
:1049E0002268136843F0160313602268536943F08A
:1049F00080035361236C23B12268136843F00803DA
:104A000013602268136843F0010313600020DAE7A3
:104A10000220D8E790F83530DBB2022B03D0802398
:104A2000436501207047052380F83530026813681C
:104A300023F001031360002070470000F0B583B03D
:104A4000044600230193724B1D68724BA3FB05358E
:104A5000AD0A876D3E68C26D08239340334210D083
:104A600003681A6812F0040F0BD01A6822F00402CF
:104A70001A60C26D08239340BB60436D43F001038D
:104A80004365E26D01239340334209D022685269A5
:104A900012F0800F04D0BB60636D43F002036365C6
:104AA000E26D04239340334209D02268126812F069
:104AB000020F04D0BB60636D43F004036365E26DD5
:104AC00010239340334224D02268126812F0080F5A
:104AD0001FD0BB6023681A6812F4802F0DD01B68AA
:104AE00013F4002F04D1236C9BB12046984710E0AB
:104AF000A36C73B1204698470BE01A6812F4807FCC
:104B000003D11A6822F008021A60236C0BB1204608
:104B10009847E26D20239340334255D022681268B3
:104B200012F0100F50D0BB6094F83530DBB2052B7B
:104B30000ED023681A6812F4802F33D01B6813F448
:104B4000002F2AD1636C002B3ED0204698473BE0D3
:104B50002268136823F0160313602268536923F058
:104B600080035361236CA3B12268136823F0080308
:104B70001360E26D3F239340BB60002384F8343020
:104B8000012384F83530236D002B3FD02046984711
:104B90003CE0A36C002BE7D1EBE7E36BA3B120462D
:104BA000984711E01A6812F4807F09D11A6822F040
:104BB00010021A60002384F83430012384F8353061
:104BC000E36B0BB120469847636DFBB1636D13F047
:104BD000010F17D0052384F835302268136823F0BD
:104BE00001031360019B01330193AB4204D8236896
:104BF0001B6813F0010FF5D1002384F83430012332
:104C000084F83530E36C0BB12046984703B0F0BD13
:104C100050000020B5814E1B00230F2B00F2E580D1
:104C2000F0B482B039E0092200E00022B2403A43F9
:104C300002346E4E46F824206D4A1468EA4324EA92
:104C400005064F6817F4803F01D045EA0406684C1A
:104C50002660646802EA04064F6817F4003F01D03A
:104C600045EA0406624C6660A46802EA04064F68DE
:104C700017F4801F01D045EA04065D4CA660E46885
:104C800022404E6816F4001F01D045EA0402584C39
:104C9000E26001330F2B00F2A58001229A400C68DC
:104CA00004EA020532EA0404F3D14C68022C01D074
:104CB000122C10D1DE08083650F826C003F0070485
:104CC000A7000F24BC402CEA040C0C69BC4044EA49
:104CD0000C0440F82640D0F800C05E000324B44025
:104CE000E7432CEA040C4C6804F00304B44044EAA3
:104CF0000C0404604C6804F1FF3CBCF1010F03D9C3
:104D0000112C01D0122C10D1846807EA040CCC6855
:104D1000B44044EA0C048460446824EA02024C680B
:104D2000C4F300149C4014434460C26817408A686E
:104D3000B2403A43C2604A6812F0805FA9D00022B4
:104D400001922C4A546C44F480445464526C02F432
:104D500080420192019A9C08A61C244A52F82670AF
:104D600003F0030296000F22B24027EA0207224A0C
:104D700090423FF45AAF02F58062904222D002F591
:104D80008062904220D002F5806290421ED002F5EF
:104D9000806290421CD002F5806290421AD002F5E7
:104DA0008062904218D002F58062904216D002F5DF
:104DB0008062904214D002F5806290423FF433AF9B
:104DC0000A2233E7012231E702222FE703222DE7EF
:104DD00004222BE7052229E7062227E7072225E7F9
:104DE000082223E702B0F0BC70477047003801404A
:104DF000003C0140003802400000024003691942B3
:104E000001D001207047002070470AB181617047CE
:104E1000090481617047436959404161704700004E
:104E200008B5054B5B69034200D108BD024B5861D0
:104E3000FBF704FBF9E700BF003C01402DE9F0431C
:104E400083B007460C46D0F80080C1EBC10300EBED
:104E50008303DE6C1A6DB61A1B6C9E4200D91E4687
:104E600006F103094FEA990915E006F103094FEA33
:104E70009909C4EBC40507EB8505696C3B7C00937D
:104E8000B3B2E2B2404601F0D4FE6B6C33446B64C3
:104E90002B6D33442B65414608EB441303F5106337
:104EA0009B699BB24B4512D9C4EBC40307EB830348
:104EB0001A6DDB6C9A420AD24BB19E1AC4EBC40342
:104EC00007EB83031B6C9E42CFD91E46CDE73EB94C
:104ED0000123A340D1F8344824EA0304C1F834483C
:104EE000002003B0BDE8F0832DE9F84F04460668C2
:104EF000304602F09DF808B1BDE8F88F07462068FB
:104F000002F067F80028F7D0206802F062F810F08D
:104F1000020F04D02268536903F002035361206832
:104F200002F057F810F4002574D1206802F051F80F
:104F300010F4802F40F0D280206802F04AF8002858
:104F4000C0F23E81206802F044F810F4006F0AD0ED
:104F5000D6F8083813F0010F40F0418122685369F8
:104F600003F400635361206802F033F810F4805FAB
:104F700040F03981206802F02CF810F4005F40F016
:104F80008281206802F025F810F0100F14D02268FA
:104F9000936923F010039361376A07F00F08C7F392
:104FA0004343022B00F00382062B00F01F8222688D
:104FB000936943F010039361206802F00AF810F03F
:104FC000080F40F02582206802F003F810F4801FDB
:104FD00040F02782206801F0FCFF10F4001F40F031
:104FE0002A82206801F0F5FF10F0804F40F02D82FA
:104FF000206801F0EEFF10F0040F3FF47DAF23684E
:105000005D6815F0040F40F02982226853682B4335
:10501000536071E7206801F0E0FF80463D4621E0E3
:10502000C5EBC50204EB8202D2F800121B69C3F380
:105030001203C91AC2F81012D2F80012D2F80432C0
:105040000B44C2F8043228E019F0080F3DD119F0E2
:10505000100F04D006EB45131022C3F8082B0135BE
:105060004FEA5808B8F1000F3FF45FAF18F0010F96
:10507000F5D05FFA85FA5146206801F0BEFF8146FF
:1050800010F0010FE0D006EB45130122C3F8082B06
:1050900003F530632269012AC2D051462046FEF74B
:1050A00009FB2369012BCFD1002DCDD1C5EBC50361
:1050B00004EB8303D3F80C32002BC5D104F56F72D7
:1050C0000121206801F0D4FFBEE72046FEF7EAFA8E
:1050D00006EB45130822C3F8082BB8E7206801F057
:1050E00084FF80463D462EE0C5EBC50304EB8303F9
:1050F000196C5A6C0A445A6446E019F0080F04D03F
:1051000006EB45130822C3F8082919F0100F04D044
:1051100006EB45131022C3F8082919F0400F04D0FC
:1051200006EB45134022C3F8082919F0020F04D0FA
:1051300006EB45130222C3F8082919F0800F3AD173
:1051400001354FEA5808B8F1000F3FF4F5AE18F0FA
:10515000010FF5D05FFA85FA5146206801F056FF3D
:10516000814610F0010FC8D0012202FA05F0D6F8EE
:10517000343823EA0003C6F8343806EB4513C3F885
:10518000082923699342AFD051462046FEF79EFA84
:105190002369012BB1D1002DAFD1C5EBC50304EBC1
:1051A0008303DB6C002BA8D104F56F72012120680A
:1051B00001F05EFFA1E729462046FFF73FFEBFE76B
:1051C000D6F8043823F00103C6F804382046FEF769
:1051D000B7FA2268536903F000435361B2E62046F0
:1051E000FEF796FABAE6B14606F50068D8F804303C
:1051F00023F00103C8F804301021206801F0ECFB13
:1052000007E009EB4713FF22C3F80829C3F8082B6E
:1052100001376368BB42F4D84FF0FF33C8F8183049
:10522000D8F81C3043F00113C8F81C30236BEBB1E5
:10523000D8F8843043F00B03C8F88430D8F84430F1
:1052400043F00B03C8F84430D6F8003823F4FE636B
:10525000C6F8003804F56F72217C206801F008FF61
:105260002268536903F48053536183E6D8F81430FD
:1052700043F00B03C8F81430D8F8103043F00B0398
:10528000C8F81030E0E7206801F0D6FE2268D36845
:1052900023F47053D360206801F0B2FB90B900236F
:1052A000E3604FF4007363612268D36843F41053E2
:1052B000D3602046FEF71BFA2268536903F40053BB
:1052C00053615EE60323E3604023636100F0AEFCBC
:1052D000644B0344644A934205D82268D36843F47C
:1052E0007053D360E5E7614B0344614A934205D8AC
:1052F0002268D36843F46053D360DAE7A0F57403FF
:10530000A3F510535B4A934205D82268D36843F44F
:105310005053D360CDE7A0F18373A3F5E743564A1A
:10532000934205D22268D36843F44053D360C0E768
:10533000524B0344524A934205D82268D36843F43F
:105340003053D360B5E74F4B03444F4A934205D2E5
:105350002268D36843F42053D360AAE74B4B03443D
:105360004B4A934205D22268D36843F41053D3606A
:105370009FE7A0F1B773A3F55853464A934205D26D
:105380002268D36843F40053D36092E7424B03444E
:10539000424A934205D22268D36843F4E053D36073
:1053A00087E72268D36843F4C053D36081E747F6A8
:1053B000F0731F423FF4FBAD4FEA171BC8EBC8095F
:1053C00004EB8909C7F30A12D9F80412304601F038
:1053D00077FDCBF30A02D9F804321344C9F804323A
:1053E000D9F810321A44C9F81022E0E5082204F571
:1053F0006F71304601F064FDC7F30A17C8EBC802AD
:1054000004EB8202D2F810321F44C2F81072CEE5CB
:105410002046FEF766F92268536903F008035361DA
:10542000D1E5E9B22046FEF797F92268536903F403
:1054300080135361CEE5E9B22046FEF787F9226872
:10544000536903F400135361CBE52046FEF78AF954
:105450002268536903F080435361C9E52046FEF793
:1054600087F9D2E5405327FFFF340C00401E1BFF95
:105470003F420F007F4F120020D6130060B6E5FEBA
:105480005FE3160000D3CEFE40771B00C05BB3FE87
:10549000C091210020753800E05459FEE09C410085
:1054A00090F8B833012B0BD010B50446012380F8D7
:1054B000B833006801F07DFD002084F8B80310BD0A
:1054C0000220704770B5054608464EB2002E20DB1C
:1054D00001F07F04C4EBC404A40004F5FC74291992
:1054E00000F07F000870F60F4E708A60CB7006B136
:1054F000C880022B15D095F8B833012B14D00123A6
:1055000085F8B833286801F09BFA002085F8B803C5
:1055100070BD01F07F04C4EBC404A4003834291921
:10552000DEE700230B71E6E70220F1E738B501F072
:105530007F04C4EBC401890001F5FC710144C4EB94
:10554000C40500EB8505C5F80422C5F80C3200231C
:10555000C5F8103285F8F93185F8F8410369012B57
:1055600006D064B9DAB2006801F0B3FA002038BDA1
:10557000C4EBC40500EB8505C5F80822F1E7DAB2F3
:10558000006801F06BFBF1E738B501F07F04C4EB74
:10559000C401890038310144C4EBC40500EB850522
:1055A0006A64EB6400232B65012385F8393085F8A4
:1055B00038400369012B06D05CB9DAB2006801F00B
:1055C00088FA002038BDC4EBC40500EB8505AA6449
:1055D000F2E7DAB2006801F041FBF2E738B50446C1
:1055E0000A4648B200281BDBC1EBC1039B0003F550
:1055F000FC73E11801238B7002F07F050D70C00F62
:10560000487094F8B833012B19D0012384F8B833CB
:10561000206801F067FC5DB1002084F8B80338BD54
:1056200001F07F03C3EBC3039B003833E118E1E7CC
:1056300004F56F72217C206801F01AFDECE702206E
:10564000EDE710B504460A4648B200281ADBC1EB64
:10565000C1039B0003F5FC73E11800238B7002F07B
:105660007F020A70C00F487094F8B833012B11D034
:10567000012384F8B833206801F066FC002084F828
:10568000B80310BD01F07F03C3EBC3039B003833A5
:10569000E118E2E70220F4E7002800F0B98170B5D4
:1056A00082B00446036813F0010F3BD0A64B9B6801
:1056B00003F00C03042B2CD0A34B9B6803F00C03CA
:1056C000082B21D06368B3F5803F4FD0B3F5A02FEE
:1056D00052D09D4B1A6822F480321A601A6822F464
:1056E00080221A606368002B50D0FEF78BFC0546C1
:1056F000954B1B6813F4003F14D1FEF783FC401B4D
:105700006428F5D903208AE18F4B5B6813F4800F7E
:10571000D8D08D4B1B6813F4003F03D06368002B77
:1057200000F07881236813F0020F54D0864B9B68F9
:1057300013F00C0F3ED0844B9B6803F00C03082B36
:1057400033D0E368002B67D0804B01221A60FEF74C
:1057500059FC05467C4B1B6813F0020F53D1FEF732
:1057600051FC401B0228F5D9032058E1764A136802
:1057700043F480331360B5E7734B1A6842F4802218
:105780001A601A6842F480321A60ABE7FEF73AFCFE
:1057900005466D4B1B6813F4003FC3D0FEF732FC87
:1057A000401B6428F5D9032039E1674B5B6813F48B
:1057B000800FC6D1644B1B6813F0020F03D0E3685F
:1057C000012B40F02981604A136823F0F803216916
:1057D00043EAC1031360236813F0080F40D06369E4
:1057E00063B35B4B01221A60FEF70CFC0546564B77
:1057F0005B6F13F0020F33D1FEF704FC401B02284D
:10580000F5D903200BE1504A136823F0F80321690E
:1058100043EAC1031360DEE74C4B00221A60FEF737
:10582000F1FB0546484B1B6813F0020FD3D0FEF77F
:10583000E9FB401B0228F5D90320F0E0444B00228D
:105840001A60FEF7DFFB05463F4B5B6F13F0020F5C
:1058500006D0FEF7D7FB401B0228F5D90320DEE077
:10586000236813F0040F78D0374B1B6C13F0805F64
:105870000DD100230193344B1A6C42F080521A640C
:105880001B6C03F080530193019B012500E0002570
:10589000304B1B6813F4807F21D0A368012B32D0DA
:1058A000052B36D0284B1A6F22F001021A671A6FA7
:1058B00022F004021A67A368002B34D0FEF7A2FB83
:1058C0000646214B1B6F13F0020F45D1FEF79AFBE2
:1058D000801B41F288339842F3D903209FE01D4A90
:1058E000136843F480731360FEF78CFB0646194B74
:1058F0001B6813F4807FD0D1FEF784FB801B022845
:10590000F5D903208BE0104A136F43F001031367AE
:10591000D1E70D4B1A6F42F004021A671A6F42F07A
:1059200001021A67C7E7FEF76DFB0646064B1B6FC1
:1059300013F0020F10D0FEF765FB801B41F2883395
:105940009842F3D903206AE0003802400000474241
:10595000800E474200700040E5B9A369002B5DD07E
:10596000314A926802F00C02082A5AD0022B17D052
:105970002E4B00221A60FEF745FB04462A4B1B689B
:1059800013F0007F42D0FEF73DFB001B0228F5D943
:10599000032044E0244A136C23F080531364DCE7B3
:1059A000224B00221A60FEF72DFB05461E4B1B689A
:1059B00013F0007F06D0FEF725FB401B0228F5D927
:1059C00003202CE0E369226A1343626A43EA8213EC
:1059D000A26A5208013A43EA0243E26A43EA0263D6
:1059E000114A5360114B01221A60FEF70BFB04466B
:1059F0000D4B1B6813F0007F06D1FEF703FB001B65
:105A00000228F5D903200AE0002008E0002006E083
:105A100001207047012002E0012000E0002002B0D8
:105A200070BD0120FBE700BF003802406000474224
:105A3000F8B5244B9B6803F00C03042B3DD0082BD6
:105A40003DD1204B5A6802F03F025B6813F4800F8F
:105A500012D01C4B5968C1F3881100231A48A1FBCE
:105A6000000102F09FF9174B5B68C3F30143013358
:105A70005B00B0FBF3F023E0124B5B68C3F38813C9
:105A80005C010025E41A65F10005AE0146EA946662
:105A9000A701381B66EB0501CC0044EA5074C50031
:105AA000E81844F100018B0243EA90538402204637
:105AB0001946002302F076F9D5E7034800E00348D1
:105AC000F8BD00BF00380240001BB7000024F400FE
:105AD000002800F09A8070B50D4604464F4B1B68B5
